{
  "contractName": "LandRegistry",
  "abi": [
    {
      "inputs": [],
      "stateMutability": "nonpayable",
      "type": "constructor"
    },
    {
      "anonymous": false,
      "inputs": [
        {
          "indexed": true,
          "internalType": "uint256",
          "name": "certificateId",
          "type": "uint256"
        },
        {
          "indexed": true,
          "internalType": "uint256",
          "name": "landId",
          "type": "uint256"
        },
        {
          "indexed": true,
          "internalType": "address",
          "name": "owner",
          "type": "address"
        },
        {
          "indexed": false,
          "internalType": "string",
          "name": "certificateHash",
          "type": "string"
        }
      ],
      "name": "CertificateGenerated",
      "type": "event"
    },
    {
      "anonymous": false,
      "inputs": [
        {
          "indexed": false,
          "internalType": "uint256",
          "name": "id",
          "type": "uint256"
        },
        {
          "indexed": false,
          "internalType": "address",
          "name": "owner",
          "type": "address"
        }
      ],
      "name": "LandForSale",
      "type": "event"
    },
    {
      "anonymous": false,
      "inputs": [
        {
          "indexed": false,
          "internalType": "uint256",
          "name": "id",
          "type": "uint256"
        },
        {
          "indexed": false,
          "internalType": "address",
          "name": "owner",
          "type": "address"
        },
        {
          "indexed": false,
          "internalType": "string",
          "name": "plotNumber",
          "type": "string"
        },
        {
          "indexed": false,
          "internalType": "uint256",
          "name": "areaSqYd",
          "type": "uint256"
        }
      ],
      "name": "LandRegistered",
      "type": "event"
    },
    {
      "anonymous": false,
      "inputs": [
        {
          "indexed": false,
          "internalType": "uint256",
          "name": "id",
          "type": "uint256"
        },
        {
          "indexed": true,
          "internalType": "address",
          "name": "from",
          "type": "address"
        },
        {
          "indexed": true,
          "internalType": "address",
          "name": "to",
          "type": "address"
        }
      ],
      "name": "TransferApproved",
      "type": "event"
    },
    {
      "anonymous": false,
      "inputs": [
        {
          "indexed": false,
          "internalType": "uint256",
          "name": "id",
          "type": "uint256"
        },
        {
          "indexed": true,
          "internalType": "address",
          "name": "requester",
          "type": "address"
        },
        {
          "indexed": true,
          "internalType": "address",
          "name": "owner",
          "type": "address"
        }
      ],
      "name": "TransferDenied",
      "type": "event"
    },
    {
      "anonymous": false,
      "inputs": [
        {
          "indexed": false,
          "internalType": "uint256",
          "name": "id",
          "type": "uint256"
        },
        {
          "indexed": true,
          "internalType": "address",
          "name": "requester",
          "type": "address"
        },
        {
          "indexed": true,
          "internalType": "address",
          "name": "owner",
          "type": "address"
        }
      ],
      "name": "TransferRequested",
      "type": "event"
    },
    {
      "anonymous": false,
      "inputs": [
        {
          "indexed": true,
          "internalType": "address",
          "name": "user",
          "type": "address"
        },
        {
          "indexed": true,
          "internalType": "address",
          "name": "admin",
          "type": "address"
        }
      ],
      "name": "UserApproved",
      "type": "event"
    },
    {
      "anonymous": false,
      "inputs": [
        {
          "indexed": true,
          "internalType": "address",
          "name": "user",
          "type": "address"
        },
        {
          "indexed": false,
          "internalType": "string",
          "name": "fullName",
          "type": "string"
        },
        {
          "indexed": false,
          "internalType": "uint256",
          "name": "timestamp",
          "type": "uint256"
        }
      ],
      "name": "UserRegistered",
      "type": "event"
    },
    {
      "anonymous": false,
      "inputs": [
        {
          "indexed": true,
          "internalType": "address",
          "name": "user",
          "type": "address"
        },
        {
          "indexed": true,
          "internalType": "address",
          "name": "admin",
          "type": "address"
        }
      ],
      "name": "UserRejected",
      "type": "event"
    },
    {
      "inputs": [],
      "name": "admin",
      "outputs": [
        {
          "internalType": "address",
          "name": "",
          "type": "address"
        }
      ],
      "stateMutability": "view",
      "type": "function",
      "constant": true
    },
    {
      "inputs": [
        {
          "internalType": "address",
          "name": "",
          "type": "address"
        }
      ],
      "name": "approvedUsers",
      "outputs": [
        {
          "internalType": "bool",
          "name": "",
          "type": "bool"
        }
      ],
      "stateMutability": "view",
      "type": "function",
      "constant": true
    },
    {
      "inputs": [],
      "name": "certificateCount",
      "outputs": [
        {
          "internalType": "uint256",
          "name": "",
          "type": "uint256"
        }
      ],
      "stateMutability": "view",
      "type": "function",
      "constant": true
    },
    {
      "inputs": [
        {
          "internalType": "string",
          "name": "",
          "type": "string"
        }
      ],
      "name": "certificateHashExists",
      "outputs": [
        {
          "internalType": "bool",
          "name": "",
          "type": "bool"
        }
      ],
      "stateMutability": "view",
      "type": "function",
      "constant": true
    },
    {
      "inputs": [
        {
          "internalType": "uint256",
          "name": "",
          "type": "uint256"
        }
      ],
      "name": "certificates",
      "outputs": [
        {
          "internalType": "uint256",
          "name": "landId",
          "type": "uint256"
        },
        {
          "internalType": "address",
          "name": "owner",
          "type": "address"
        },
        {
          "internalType": "string",
          "name": "certificateHash",
          "type": "string"
        },
        {
          "internalType": "uint256",
          "name": "issueDate",
          "type": "uint256"
        },
        {
          "internalType": "bool",
          "name": "isValid",
          "type": "bool"
        }
      ],
      "stateMutability": "view",
      "type": "function",
      "constant": true
    },
    {
      "inputs": [],
      "name": "landCount",
      "outputs": [
        {
          "internalType": "uint256",
          "name": "",
          "type": "uint256"
        }
      ],
      "stateMutability": "view",
      "type": "function",
      "constant": true
    },
    {
      "inputs": [
        {
          "internalType": "uint256",
          "name": "",
          "type": "uint256"
        },
        {
          "internalType": "uint256",
          "name": "",
          "type": "uint256"
        }
      ],
      "name": "landOwnershipHistory",
      "outputs": [
        {
          "internalType": "address",
          "name": "owner",
          "type": "address"
        },
        {
          "internalType": "uint256",
          "name": "timestamp",
          "type": "uint256"
        }
      ],
      "stateMutability": "view",
      "type": "function",
      "constant": true
    },
    {
      "inputs": [
        {
          "internalType": "uint256",
          "name": "",
          "type": "uint256"
        }
      ],
      "name": "landToCertificate",
      "outputs": [
        {
          "internalType": "uint256",
          "name": "",
          "type": "uint256"
        }
      ],
      "stateMutability": "view",
      "type": "function",
      "constant": true
    },
    {
      "inputs": [
        {
          "internalType": "uint256",
          "name": "",
          "type": "uint256"
        }
      ],
      "name": "lands",
      "outputs": [
        {
          "internalType": "uint256",
          "name": "id",
          "type": "uint256"
        },
        {
          "internalType": "string",
          "name": "plotNumber",
          "type": "string"
        },
        {
          "internalType": "string",
          "name": "area",
          "type": "string"
        },
        {
          "internalType": "string",
          "name": "district",
          "type": "string"
        },
        {
          "internalType": "string",
          "name": "city",
          "type": "string"
        },
        {
          "internalType": "string",
          "name": "state",
          "type": "string"
        },
        {
          "internalType": "uint256",
          "name": "areaSqYd",
          "type": "uint256"
        },
        {
          "internalType": "address",
          "name": "owner",
          "type": "address"
        },
        {
          "internalType": "bool",
          "name": "isForSale",
          "type": "bool"
        },
        {
          "internalType": "address",
          "name": "transferRequest",
          "type": "address"
        }
      ],
      "stateMutability": "view",
      "type": "function",
      "constant": true
    },
    {
      "inputs": [
        {
          "internalType": "address",
          "name": "",
          "type": "address"
        },
        {
          "internalType": "uint256",
          "name": "",
          "type": "uint256"
        }
      ],
      "name": "ownerLands",
      "outputs": [
        {
          "internalType": "uint256",
          "name": "",
          "type": "uint256"
        }
      ],
      "stateMutability": "view",
      "type": "function",
      "constant": true
    },
    {
      "inputs": [
        {
          "internalType": "uint256",
          "name": "",
          "type": "uint256"
        }
      ],
      "name": "userAddresses",
      "outputs": [
        {
          "internalType": "address",
          "name": "",
          "type": "address"
        }
      ],
      "stateMutability": "view",
      "type": "function",
      "constant": true
    },
    {
      "inputs": [],
      "name": "userCount",
      "outputs": [
        {
          "internalType": "uint256",
          "name": "",
          "type": "uint256"
        }
      ],
      "stateMutability": "view",
      "type": "function",
      "constant": true
    },
    {
      "inputs": [
        {
          "internalType": "address",
          "name": "",
          "type": "address"
        }
      ],
      "name": "users",
      "outputs": [
        {
          "internalType": "address",
          "name": "userAddress",
          "type": "address"
        },
        {
          "internalType": "string",
          "name": "fullName",
          "type": "string"
        },
        {
          "internalType": "string",
          "name": "email",
          "type": "string"
        },
        {
          "internalType": "string",
          "name": "phone",
          "type": "string"
        },
        {
          "internalType": "string",
          "name": "nationalId",
          "type": "string"
        },
        {
          "internalType": "string",
          "name": "homeAddress",
          "type": "string"
        },
        {
          "internalType": "bool",
          "name": "isApproved",
          "type": "bool"
        },
        {
          "internalType": "bool",
          "name": "isRegistered",
          "type": "bool"
        },
        {
          "internalType": "uint256",
          "name": "registrationTime",
          "type": "uint256"
        }
      ],
      "stateMutability": "view",
      "type": "function",
      "constant": true
    },
    {
      "inputs": [
        {
          "internalType": "string",
          "name": "_fullName",
          "type": "string"
        },
        {
          "internalType": "string",
          "name": "_email",
          "type": "string"
        },
        {
          "internalType": "string",
          "name": "_phone",
          "type": "string"
        },
        {
          "internalType": "string",
          "name": "_nationalId",
          "type": "string"
        },
        {
          "internalType": "string",
          "name": "_homeAddress",
          "type": "string"
        }
      ],
      "name": "registerUser",
      "outputs": [],
      "stateMutability": "nonpayable",
      "type": "function"
    },
    {
      "inputs": [
        {
          "internalType": "address",
          "name": "_userAddress",
          "type": "address"
        }
      ],
      "name": "approveUser",
      "outputs": [],
      "stateMutability": "nonpayable",
      "type": "function"
    },
    {
      "inputs": [
        {
          "internalType": "address",
          "name": "_userAddress",
          "type": "address"
        }
      ],
      "name": "rejectUser",
      "outputs": [],
      "stateMutability": "nonpayable",
      "type": "function"
    },
    {
      "inputs": [],
      "name": "getPendingUsers",
      "outputs": [
        {
          "internalType": "address[]",
          "name": "",
          "type": "address[]"
        }
      ],
      "stateMutability": "view",
      "type": "function",
      "constant": true
    },
    {
      "inputs": [],
      "name": "getApprovedUsers",
      "outputs": [
        {
          "internalType": "address[]",
          "name": "",
          "type": "address[]"
        }
      ],
      "stateMutability": "view",
      "type": "function",
      "constant": true
    },
    {
      "inputs": [
        {
          "internalType": "address",
          "name": "_userAddress",
          "type": "address"
        }
      ],
      "name": "isUserApproved",
      "outputs": [
        {
          "internalType": "bool",
          "name": "",
          "type": "bool"
        }
      ],
      "stateMutability": "view",
      "type": "function",
      "constant": true
    },
    {
      "inputs": [
        {
          "internalType": "address",
          "name": "_userAddress",
          "type": "address"
        }
      ],
      "name": "getUserDetails",
      "outputs": [
        {
          "internalType": "string",
          "name": "fullName",
          "type": "string"
        },
        {
          "internalType": "string",
          "name": "email",
          "type": "string"
        },
        {
          "internalType": "string",
          "name": "phone",
          "type": "string"
        },
        {
          "internalType": "string",
          "name": "nationalId",
          "type": "string"
        },
        {
          "internalType": "string",
          "name": "homeAddress",
          "type": "string"
        },
        {
          "internalType": "bool",
          "name": "isApproved",
          "type": "bool"
        },
        {
          "internalType": "bool",
          "name": "isRegistered",
          "type": "bool"
        },
        {
          "internalType": "uint256",
          "name": "registrationTime",
          "type": "uint256"
        }
      ],
      "stateMutability": "view",
      "type": "function",
      "constant": true
    },
    {
      "inputs": [
        {
          "internalType": "string",
          "name": "_plotNumber",
          "type": "string"
        },
        {
          "internalType": "string",
          "name": "_area",
          "type": "string"
        },
        {
          "internalType": "string",
          "name": "_district",
          "type": "string"
        },
        {
          "internalType": "string",
          "name": "_city",
          "type": "string"
        },
        {
          "internalType": "string",
          "name": "_state",
          "type": "string"
        },
        {
          "internalType": "uint256",
          "name": "_areaSqYd",
          "type": "uint256"
        }
      ],
      "name": "registerLand",
      "outputs": [],
      "stateMutability": "nonpayable",
      "type": "function"
    },
    {
      "inputs": [
        {
          "internalType": "uint256",
          "name": "_landId",
          "type": "uint256"
        }
      ],
      "name": "putLandForSale",
      "outputs": [],
      "stateMutability": "nonpayable",
      "type": "function"
    },
    {
      "inputs": [
        {
          "internalType": "uint256",
          "name": "_landId",
          "type": "uint256"
        }
      ],
      "name": "requestTransfer",
      "outputs": [],
      "stateMutability": "nonpayable",
      "type": "function"
    },
    {
      "inputs": [
        {
          "internalType": "uint256",
          "name": "_landId",
          "type": "uint256"
        }
      ],
      "name": "approveTransfer",
      "outputs": [],
      "stateMutability": "nonpayable",
      "type": "function"
    },
    {
      "inputs": [
        {
          "internalType": "uint256",
          "name": "_landId",
          "type": "uint256"
        }
      ],
      "name": "denyTransfer",
      "outputs": [],
      "stateMutability": "nonpayable",
      "type": "function"
    },
    {
      "inputs": [
        {
          "internalType": "uint256",
          "name": "_landId",
          "type": "uint256"
        }
      ],
      "name": "verifyLand",
      "outputs": [
        {
          "internalType": "string",
          "name": "",
          "type": "string"
        },
        {
          "internalType": "string",
          "name": "",
          "type": "string"
        },
        {
          "internalType": "string",
          "name": "",
          "type": "string"
        },
        {
          "internalType": "string",
          "name": "",
          "type": "string"
        },
        {
          "internalType": "string",
          "name": "",
          "type": "string"
        },
        {
          "internalType": "uint256",
          "name": "",
          "type": "uint256"
        },
        {
          "internalType": "address",
          "name": "",
          "type": "address"
        }
      ],
      "stateMutability": "view",
      "type": "function",
      "constant": true
    },
    {
      "inputs": [
        {
          "internalType": "address",
          "name": "_owner",
          "type": "address"
        }
      ],
      "name": "getLandsByOwner",
      "outputs": [
        {
          "internalType": "uint256[]",
          "name": "",
          "type": "uint256[]"
        }
      ],
      "stateMutability": "view",
      "type": "function",
      "constant": true
    },
    {
      "inputs": [
        {
          "internalType": "address",
          "name": "_owner",
          "type": "address"
        }
      ],
      "name": "getPendingTransferRequests",
      "outputs": [
        {
          "internalType": "uint256[]",
          "name": "",
          "type": "uint256[]"
        }
      ],
      "stateMutability": "view",
      "type": "function",
      "constant": true
    },
    {
      "inputs": [],
      "name": "getAllLands",
      "outputs": [
        {
          "components": [
            {
              "internalType": "uint256",
              "name": "id",
              "type": "uint256"
            },
            {
              "internalType": "string",
              "name": "plotNumber",
              "type": "string"
            },
            {
              "internalType": "string",
              "name": "area",
              "type": "string"
            },
            {
              "internalType": "string",
              "name": "district",
              "type": "string"
            },
            {
              "internalType": "string",
              "name": "city",
              "type": "string"
            },
            {
              "internalType": "string",
              "name": "state",
              "type": "string"
            },
            {
              "internalType": "uint256",
              "name": "areaSqYd",
              "type": "uint256"
            },
            {
              "internalType": "address",
              "name": "owner",
              "type": "address"
            },
            {
              "internalType": "bool",
              "name": "isForSale",
              "type": "bool"
            },
            {
              "internalType": "address",
              "name": "transferRequest",
              "type": "address"
            }
          ],
          "internalType": "struct LandRegistry.Land[]",
          "name": "",
          "type": "tuple[]"
        }
      ],
      "stateMutability": "view",
      "type": "function",
      "constant": true
    },
    {
      "inputs": [
        {
          "internalType": "uint256",
          "name": "_landId",
          "type": "uint256"
        }
      ],
      "name": "getPastOwnershipDetails",
      "outputs": [
        {
          "components": [
            {
              "internalType": "address",
              "name": "owner",
              "type": "address"
            },
            {
              "internalType": "uint256",
              "name": "timestamp",
              "type": "uint256"
            }
          ],
          "internalType": "struct LandRegistry.OwnershipHistory[]",
          "name": "",
          "type": "tuple[]"
        }
      ],
      "stateMutability": "view",
      "type": "function",
      "constant": true
    },
    {
      "inputs": [
        {
          "internalType": "address",
          "name": "_userAddress",
          "type": "address"
        }
      ],
      "name": "getUserTransactionHistory",
      "outputs": [
        {
          "internalType": "uint256[]",
          "name": "ownedLandIds",
          "type": "uint256[]"
        },
        {
          "internalType": "uint256[]",
          "name": "soldLandIds",
          "type": "uint256[]"
        },
        {
          "internalType": "uint256[]",
          "name": "purchasedLandIds",
          "type": "uint256[]"
        }
      ],
      "stateMutability": "view",
      "type": "function",
      "constant": true
    },
    {
      "inputs": [],
      "name": "getAllUsersTransactionSummary",
      "outputs": [
        {
          "internalType": "address[]",
          "name": "userAddressList",
          "type": "address[]"
        },
        {
          "internalType": "uint256[]",
          "name": "registeredCount",
          "type": "uint256[]"
        },
        {
          "internalType": "uint256[]",
          "name": "soldCount",
          "type": "uint256[]"
        },
        {
          "internalType": "uint256[]",
          "name": "purchasedCount",
          "type": "uint256[]"
        }
      ],
      "stateMutability": "view",
      "type": "function",
      "constant": true
    },
    {
      "inputs": [
        {
          "internalType": "uint256",
          "name": "_landId",
          "type": "uint256"
        }
      ],
      "name": "generateLandCertificate",
      "outputs": [
        {
          "internalType": "uint256",
          "name": "",
          "type": "uint256"
        }
      ],
      "stateMutability": "nonpayable",
      "type": "function"
    },
    {
      "inputs": [
        {
          "internalType": "uint256",
          "name": "_landId",
          "type": "uint256"
        }
      ],
      "name": "getCertificate",
      "outputs": [
        {
          "internalType": "uint256",
          "name": "certificateId",
          "type": "uint256"
        },
        {
          "internalType": "address",
          "name": "owner",
          "type": "address"
        },
        {
          "internalType": "string",
          "name": "certificateHash",
          "type": "string"
        },
        {
          "internalType": "uint256",
          "name": "issueDate",
          "type": "uint256"
        },
        {
          "internalType": "bool",
          "name": "isValid",
          "type": "bool"
        }
      ],
      "stateMutability": "view",
      "type": "function",
      "constant": true
    },
    {
      "inputs": [
        {
          "internalType": "string",
          "name": "_certificateHash",
          "type": "string"
        }
      ],
      "name": "verifyCertificateHash",
      "outputs": [
        {
          "internalType": "bool",
          "name": "exists",
          "type": "bool"
        },
        {
          "internalType": "uint256",
          "name": "landId",
          "type": "uint256"
        },
        {
          "internalType": "address",
          "name": "owner",
          "type": "address"
        },
        {
          "internalType": "uint256",
          "name": "issueDate",
          "type": "uint256"
        }
      ],
      "stateMutability": "view",
      "type": "function",
      "constant": true
    },
    {
      "inputs": [
        {
          "internalType": "uint256",
          "name": "_landId",
          "type": "uint256"
        }
      ],
      "name": "landHasCertificate",
      "outputs": [
        {
          "internalType": "bool",
          "name": "",
          "type": "bool"
        }
      ],
      "stateMutability": "view",
      "type": "function",
      "constant": true
    }
  ],
  "bytecode": "0x60806040523480156200001157600080fd5b50600d8054336001600160a01b03199182168117909255604080516101208101825283815281518083018352601481527f53797374656d2041646d696e6973747261746f7200000000000000000000000060208083019190915280830191825283518085018552601681527f61646d696e406c616e6472656769737472792e636f6d00000000000000000000818301528385015283518085018552600b81526a02b313233343536373839360ac1b81830152606084015283518085018552600881526741444d494e30303160c01b81830152608084015283518085018552600e81526d53797374656d204164647265737360901b8183015260a0840152600160c0840181905260e084018190524261010085015260009687526007825293909520825181549095166001600160a01b03909516949094178455518051919462000160938501929101906200027c565b50604082015180516200017e9160028401916020909101906200027c565b50606082015180516200019c9160038401916020909101906200027c565b5060808201518051620001ba9160048401916020909101906200027c565b5060a08201518051620001d89160058401916020909101906200027c565b5060c082015160068201805460e085015161ffff1990911692151561ff00191692909217610100921515830217905590910151600790910155600d80546001600160a01b039081166000908152600960209081526040808320805460ff19166001908117909155945485548452600890925282208054919093166001600160a01b03199091161790915581549190620002718362000322565b919050555062000389565b8280546200028a906200034c565b90600052602060002090601f016020900481019282620002ae5760008555620002f9565b82601f10620002c957805160ff1916838001178555620002f9565b82800160010185558215620002f9579182015b82811115620002f9578251825591602001919060010190620002dc565b50620003079291506200030b565b5090565b5b808211156200030757600081556001016200030c565b60006000198214156200034557634e487b7160e01b600052601160045260246000fd5b5060010190565b600181811c908216806200036157607f821691505b602082108114156200038357634e487b7160e01b600052602260045260246000fd5b50919050565b614a3f80620003996000396000f3fe608060405234801561001057600080fd5b506004361061021c5760003560e01c8063893cd3be11610125578063cc3d967b116100ad578063e261f1e51161007c578063e261f1e5146105a0578063e6ba2859146105c9578063f851a440146105fb578063f9c43bdf1461060e578063fe09b5ec1461063457600080fd5b8063cc3d967b1461054a578063d0dea6e214610571578063d624fdb614610584578063d7bce6581461059757600080fd5b8063ac9f0a40116100f4578063ac9f0a40146104cd578063b2882724146104e0578063b7b6e54314610500578063c51309db14610515578063cacca4a01461053757600080fd5b8063893cd3be1461042b5780638a921a9a1461044e578063a87430ba14610461578063aa874b5d1461048957600080fd5b80634dc92885116101a857806352d7b89c1161017757806352d7b89c146103c957806361dab9f7146103d2578063663b3e22146103e557806378a970df146103f85780637f092fa91461041857600080fd5b80634dc9288514610325578063502c9bd51461033857806351640fee14610379578063529d6ccf1461039d57600080fd5b806334d2b2aa116101ef57806334d2b2aa1461029957806335df1660146102b95780633fad784f146102d1578063455b9d23146102ff5780634d3edb761461031257600080fd5b806307973ccf146102215780630f6f51d41461023d57806316d119fa1461025257806326b2055614610267575b600080fd5b61022a60015481565b6040519081526020015b60405180910390f35b61025061024b366004613f12565b61063c565b005b61025a610992565b604051610234919061402f565b610289610275366004614049565b6000908152600b6020526040902054151590565b6040519015158152602001610234565b6102ac6102a736600461407e565b610afc565b60405161023491906140c9565b6102c1610cbe565b60405161023494939291906140dc565b6102896102df366004614134565b8051602081830181018051600c8252928201919093012091525460ff1681565b6102ac61030d36600461407e565b6110c4565b610250610320366004614049565b611130565b61025061033336600461407e565b61123c565b610361610346366004614049565b6008602052600090815260409020546001600160a01b031681565b6040516001600160a01b039091168152602001610234565b61038c610387366004614049565b61137f565b6040516102349594939291906141cc565b6102896103ab36600461407e565b6001600160a01b031660009081526009602052604090205460ff1690565b61022a60025481565b61022a6103e0366004614049565b6114f7565b61038c6103f3366004614049565b6117b5565b61022a610406366004614049565b600b6020526000908152604090205481565b610250610426366004614049565b61187a565b61028961043936600461407e565b60096020526000908152604090205460ff1681565b61025061045c366004614049565b611927565b61047461046f36600461407e565b611af0565b6040516102349998979695949392919061420f565b61049c610497366004614134565b611df0565b6040516102349493929190931515845260208401929092526001600160a01b03166040830152606082015260800190565b6102506104db3660046142a7565b611ed9565b6104f36104ee366004614049565b6121d3565b6040516102349190614378565b61050861225b565b60405161023491906143d0565b61052861052336600461407e565b6126cf565b604051610234939291906144f9565b610250610545366004614049565b612b6b565b61055d61055836600461407e565b612df2565b60405161023498979695949392919061453c565b61022a61057f3660046145c1565b61318b565b61025061059236600461407e565b6131bc565b61022a60005481565b6105b36105ae366004614049565b613318565b6040516102349a999897969594939291906145eb565b6105dc6105d736600461468c565b613620565b604080516001600160a01b039093168352602083019190915201610234565b600d54610361906001600160a01b031681565b61062161061c366004614049565b613666565b60405161023497969594939291906146ae565b61025a6139f8565b3360009081526009602052604090205460ff166106bc5760405162461bcd60e51b815260206004820152603360248201527f596f75206d75737420626520616e20617070726f766564207573657220746f206044820152723832b93337b936903a3434b99030b1ba34b7b760691b60648201526084015b60405180910390fd5b60008685846040516020016106d393929190614734565b60408051601f1981840301815291815281516020928301206000818152600690935291205490915060ff16156107685760405162461bcd60e51b815260206004820152603460248201527f4572726f723a204c616e6420776974682074686573652064657461696c7320696044820152731cc8185b1c9958591e481c9959da5cdd195c995960621b60648201526084016106b3565b6000805490806107778361478d565b909155505060408051610140810182526000805480835260208084018c81528486018c9052606085018b9052608085018a905260a0850189905260c085018890523360e08601526101008501849052610120850184905291835260038152939091208251815590518051929391926107f59260018501920190613dd7565b5060408201518051610811916002840191602090910190613dd7565b506060820151805161082d916003840191602090910190613dd7565b5060808201518051610849916004840191602090910190613dd7565b5060a08201518051610865916005840191602090910190613dd7565b5060c082015160068083019190915560e08301516007830180546101008601511515600160a01b026001600160a81b03199091166001600160a01b039384161717905561012090930151600890920180549284166001600160a01b0319938416179055600084815260209182526040808220805460ff1916600190811790915533808452600485528284208454815480850183559186528686209091015583548452600585528284208351808501855282815242818801908152825480860184559287529686209051600290920201805491909816961695909517865592519490920193909355915491517f09f87bd638cbe9814396205461896d192bb615baa655b37f43ef8414a75b7fd5926109819290918b9087906147a8565b60405180910390a150505050505050565b600d546060906001600160a01b031633146109bf5760405162461bcd60e51b81526004016106b3906147e3565b6000805b600154811015610a20576000818152600860209081526040808320546001600160a01b031680845260079092529091206006015460ff1615610a0d5782610a098161478d565b9350505b5080610a188161478d565b9150506109c3565b506000816001600160401b03811115610a3b57610a3b613e70565b604051908082528060200260200182016040528015610a64578160200160208202803683370190505b5090506000805b600154811015610af3576000818152600860209081526040808320546001600160a01b031680845260079092529091206006015460ff1615610ae05780848481518110610aba57610aba614825565b6001600160a01b039092166020928302919091019091015282610adc8161478d565b9350505b5080610aeb8161478d565b915050610a6b565b50909250505090565b6001600160a01b0381166000908152600460209081526040808320805482518185028101850190935280835260609493830182828015610b5b57602002820191906000526020600020905b815481526020019060010190808311610b47575b505050505090506000805b8251811015610bdc5760006001600160a01b031660036000858481518110610b9057610b90614825565b6020908102919091018101518252810191909152604001600020600801546001600160a01b031614610bca5781610bc68161478d565b9250505b80610bd48161478d565b915050610b66565b506000816001600160401b03811115610bf757610bf7613e70565b604051908082528060200260200182016040528015610c20578160200160208202803683370190505b5090506000805b8451811015610cb3576000858281518110610c4457610c44614825565b602090810291909101810151600081815260039092526040909120600801549091506001600160a01b031615610ca05780848481518110610c8757610c87614825565b602090810291909101015282610c9c8161478d565b9350505b5080610cab8161478d565b915050610c27565b509095945050505050565b600d546060908190819081906001600160a01b03163314610cf15760405162461bcd60e51b81526004016106b3906147e3565b6001546001600160401b03811115610d0b57610d0b613e70565b604051908082528060200260200182016040528015610d34578160200160208202803683370190505b5093506001546001600160401b03811115610d5157610d51613e70565b604051908082528060200260200182016040528015610d7a578160200160208202803683370190505b5092506001546001600160401b03811115610d9757610d97613e70565b604051908082528060200260200182016040528015610dc0578160200160208202803683370190505b5091506001546001600160401b03811115610ddd57610ddd613e70565b604051908082528060200260200182016040528015610e06578160200160208202803683370190505b50905060005b6001548110156110bd5760008181526008602052604090205485516001600160a01b03909116908190879084908110610e4757610e47614825565b6001600160a01b03909216602092830291909101909101526000808060015b600054811161104857600081815260056020908152604080832080548251818502810185019093528083529192909190849084015b82821015610ee3576000848152602090819020604080518082019091526002850290910180546001600160a01b03168252600190810154828401529083529092019101610e9b565b50505050905060008151111561103557856001600160a01b031681600081518110610f1057610f10614825565b6020026020010151600001516001600160a01b03161415610f395784610f358161478d565b9550505b6000828152600360205260408120600701546001600160a01b03888116911614815b8351811015610fb657886001600160a01b0316848281518110610f8057610f80614825565b6020026020010151600001516001600160a01b03161415610fa45760019250610fb6565b80610fae8161478d565b915050610f5b565b50818015610fc2575080155b15610fd55785610fd18161478d565b9650505b60018351118015610fe35750805b801561101f5750876001600160a01b03168360008151811061100757611007614825565b6020026020010151600001516001600160a01b031614155b15611032578461102e8161478d565b9550505b50505b50806110408161478d565b915050610e66565b508288868151811061105c5761105c614825565b6020026020010181815250508187868151811061107b5761107b614825565b6020026020010181815250508086868151811061109a5761109a614825565b6020026020010181815250505050505080806110b59061478d565b915050610e0c565b5090919293565b6001600160a01b03811660009081526004602090815260409182902080548351818402810184019094528084526060939283018282801561112457602002820191906000526020600020905b815481526020019060010190808311611110575b50505050509050919050565b60008181526003602052604090206007015481906001600160a01b0316331461116b5760405162461bcd60e51b81526004016106b39061483b565b6000828152600360205260409020600801546001600160a01b03166111d25760405162461bcd60e51b815260206004820152601b60248201527f4e6f207472616e7366657220726571756573742070656e64696e67000000000060448201526064016106b3565b60008281526003602090815260409182902060080180546001600160a01b0319811690915591518481526001600160a01b0390921691339183917fa3c0d3fbb03e51519f4b24f4aec27d3efd1f9d7748eae4e08d59fe9d220a9881910160405180910390a3505050565b600d546001600160a01b031633146112665760405162461bcd60e51b81526004016106b3906147e3565b6001600160a01b038116600090815260076020526040902060060154610100900460ff166112cc5760405162461bcd60e51b8152602060048201526013602482015272155cd95c881b9bdd081c9959da5cdd195c9959606a1b60448201526064016106b3565b6001600160a01b03811660009081526007602052604090206006015460ff16156113305760405162461bcd60e51b8152602060048201526015602482015274155cd95c88185b1c9958591e48185c1c1c9bdd9959605a1b60448201526064016106b3565b6001600160a01b038116600081815260076020526040808220600601805461ffff19169055513392917f88c66eacb291928442a11f4bd35a88a9e2a978ee623d13c59bb9cbf43c230b4891a350565b6000818152600b60205260408120549060608180846113ec5760405162461bcd60e51b815260206004820152602360248201527f4e6f2063657274696669636174652065786973747320666f722074686973206c604482015262185b9960ea1b60648201526084016106b3565b6000858152600a60209081526040808320815160a0810183528154815260018201546001600160a01b03169381019390935260028101805491928401916114329061487d565b80601f016020809104026020016040519081016040528092919081815260200182805461145e9061487d565b80156114ab5780601f10611480576101008083540402835291602001916114ab565b820191906000526020600020905b81548152906001019060200180831161148e57829003601f168201915b5050509183525050600382015460208083019190915260049092015460ff16151560409182015290820151908201516060830151608090930151989a9199509791965090945092505050565b6000818152600360205260408120600701546001600160a01b031633146115755760405162461bcd60e51b815260206004820152602c60248201527f4f6e6c7920746865206c616e64206f776e65722063616e2067656e657261746560448201526b20636572746966696361746560a01b60648201526084016106b3565b6000828152600b6020526040902054156115e25760405162461bcd60e51b815260206004820152602860248201527f436572746966696361746520616c72656164792065786973747320666f7220746044820152671a1a5cc81b185b9960c21b60648201526084016106b3565b600280549060006115f28361478d565b91905055506000611604833342613bb3565b9050600c8160405161161691906148b8565b9081526040519081900360200190205460ff16156116855760405162461bcd60e51b815260206004820152602660248201527f4365727469666963617465206861736820636f6c6c6973696f6e20287665727960448201526520726172652960d01b60648201526084016106b3565b6040805160a081018252848152336020808301918252828401858152426060850152600160808501819052600280546000908152600a85529690962085518155935190840180546001600160a01b0319166001600160a01b03909216919091179055518051939492936116ff938501929190910190613dd7565b50606082015160038201556080909101516004909101805460ff19169115159190911790556002546000848152600b6020526040908190209190915551600190600c9061174d9084906148b8565b908152604051908190036020018120805492151560ff199093169290921790915560025433918591907f8e86653f3e655d55bfb43d578bf77b809b3578604127ef9f1a716510e14771d7906117a39086906148d4565b60405180910390a45050600254919050565b600a6020526000908152604090208054600182015460028301805492936001600160a01b03909216926117e79061487d565b80601f01602080910402602001604051908101604052809291908181526020018280546118139061487d565b80156118605780601f1061183557610100808354040283529160200191611860565b820191906000526020600020905b81548152906001019060200180831161184357829003601f168201915b50505050600383015460049093015491929160ff16905085565b60008181526003602052604090206007015481906001600160a01b031633146118b55760405162461bcd60e51b81526004016106b39061483b565b60008281526003602052604090819020600701805460ff60a01b1916600160a01b179055517f51e6f3eba237bf90825acfdc7a247609979c40c5e56ccf677d9a76459b2588ea9061191b90849033909182526001600160a01b0316602082015260400190565b60405180910390a15050565b600081815260036020526040902060070154600160a01b900460ff166119865760405162461bcd60e51b81526020600482015260146024820152734c616e64206973206e6f7420666f722073616c6560601b60448201526064016106b3565b6000818152600360205260409020600801546001600160a01b0316156119fc5760405162461bcd60e51b815260206004820152602560248201527f5472616e7366657220616c72656164792072657175657374656420627920736f6044820152646d656f6e6560d81b60648201526084016106b3565b6000818152600360205260409020600701546001600160a01b0316331415611a7a5760405162461bcd60e51b815260206004820152602b60248201527f4f776e65722063616e6e6f742072657175657374207472616e7366657220746f60448201526a207468656d73656c76657360a81b60648201526084016106b3565b600081815260036020526040908190206008810180546001600160a01b0319163390811790915560079091015491516001600160a01b0392909216917fad86e5395107a44c23ae10207c8807efe6cd1bfc2980d8c2bcab8f3a24daccd190611ae59085815260200190565b60405180910390a350565b600760205260009081526040902080546001820180546001600160a01b039092169291611b1c9061487d565b80601f0160208091040260200160405190810160405280929190818152602001828054611b489061487d565b8015611b955780601f10611b6a57610100808354040283529160200191611b95565b820191906000526020600020905b815481529060010190602001808311611b7857829003601f168201915b505050505090806002018054611baa9061487d565b80601f0160208091040260200160405190810160405280929190818152602001828054611bd69061487d565b8015611c235780601f10611bf857610100808354040283529160200191611c23565b820191906000526020600020905b815481529060010190602001808311611c0657829003601f168201915b505050505090806003018054611c389061487d565b80601f0160208091040260200160405190810160405280929190818152602001828054611c649061487d565b8015611cb15780601f10611c8657610100808354040283529160200191611cb1565b820191906000526020600020905b815481529060010190602001808311611c9457829003601f168201915b505050505090806004018054611cc69061487d565b80601f0160208091040260200160405190810160405280929190818152602001828054611cf29061487d565b8015611d3f5780601f10611d1457610100808354040283529160200191611d3f565b820191906000526020600020905b815481529060010190602001808311611d2257829003601f168201915b505050505090806005018054611d549061487d565b80601f0160208091040260200160405190810160405280929190818152602001828054611d809061487d565b8015611dcd5780601f10611da257610100808354040283529160200191611dcd565b820191906000526020600020905b815481529060010190602001808311611db057829003601f168201915b505050506006830154600790930154919260ff8082169361010090920416915089565b600080600080600c85604051611e0691906148b8565b9081526040519081900360200190205460ff16611e2e57506000925082915081905080611ed2565b60015b6002548111611ec2578580519060200120600a6000838152602001908152602001600020600201604051611e6591906148e7565b60405180910390201415611eb0576000908152600a6020526040902060048101548154600183015460039093015460ff909216965094506001600160a01b0390911692509050611ed2565b80611eba8161478d565b915050611e31565b5060008060008093509350935093505b9193509193565b33600090815260076020526040902060060154610100900460ff1615611f415760405162461bcd60e51b815260206004820152601760248201527f5573657220616c7265616479207265676973746572656400000000000000000060448201526064016106b3565b6000855111611f8a5760405162461bcd60e51b8152602060048201526015602482015274119d5b1b081b985b59481a5cc81c995c5d5a5c9959605a1b60448201526064016106b3565b6000845111611fcf5760405162461bcd60e51b8152602060048201526011602482015270115b585a5b081a5cc81c995c5d5a5c9959607a1b60448201526064016106b3565b60008251116120205760405162461bcd60e51b815260206004820152601760248201527f4e6174696f6e616c20494420697320726571756972656400000000000000000060448201526064016106b3565b6040805161012081018252338082526020808301898152838501899052606084018890526080840187905260a08401869052600060c08501819052600160e08601819052426101008701529381526007835294909420835181546001600160a01b0319166001600160a01b03909116178155935180519394936120aa938501929190910190613dd7565b50604082015180516120c6916002840191602090910190613dd7565b50606082015180516120e2916003840191602090910190613dd7565b50608082015180516120fe916004840191602090910190613dd7565b5060a0820151805161211a916005840191602090910190613dd7565b5060c082015160068201805460e085015161ffff1990911692151561ff001916929092176101009215158302179055909101516007909101556001805460009081526008602052604081208054336001600160a01b0319909116179055815491906121848361478d565b9190505550336001600160a01b03167f89105a1c6a3c2fbd471255c66a31ccab604af5697f67d7e2e9a0028c5e4dbd9186426040516121c4929190614983565b60405180910390a25050505050565b606060056000838152602001908152602001600020805480602002602001604051908101604052809291908181526020016000905b82821015612250576000848152602090819020604080518082019091526002850290910180546001600160a01b03168252600190810154828401529083529092019101612208565b505050509050919050565b600d546060906001600160a01b031633146122885760405162461bcd60e51b81526004016106b3906147e3565b600080546001600160401b038111156122a3576122a3613e70565b60405190808252806020026020018201604052801561233e57816020015b61232b6040518061014001604052806000815260200160608152602001606081526020016060815260200160608152602001606081526020016000815260200160006001600160a01b0316815260200160001515815260200160006001600160a01b031681525090565b8152602001906001900390816122c15790505b50905060015b60005481116126c9576003600082815260200190815260200160002060405180610140016040529081600082015481526020016001820180546123869061487d565b80601f01602080910402602001604051908101604052809291908181526020018280546123b29061487d565b80156123ff5780601f106123d4576101008083540402835291602001916123ff565b820191906000526020600020905b8154815290600101906020018083116123e257829003601f168201915b505050505081526020016002820180546124189061487d565b80601f01602080910402602001604051908101604052809291908181526020018280546124449061487d565b80156124915780601f1061246657610100808354040283529160200191612491565b820191906000526020600020905b81548152906001019060200180831161247457829003601f168201915b505050505081526020016003820180546124aa9061487d565b80601f01602080910402602001604051908101604052809291908181526020018280546124d69061487d565b80156125235780601f106124f857610100808354040283529160200191612523565b820191906000526020600020905b81548152906001019060200180831161250657829003601f168201915b5050505050815260200160048201805461253c9061487d565b80601f01602080910402602001604051908101604052809291908181526020018280546125689061487d565b80156125b55780601f1061258a576101008083540402835291602001916125b5565b820191906000526020600020905b81548152906001019060200180831161259857829003601f168201915b505050505081526020016005820180546125ce9061487d565b80601f01602080910402602001604051908101604052809291908181526020018280546125fa9061487d565b80156126475780601f1061261c57610100808354040283529160200191612647565b820191906000526020600020905b81548152906001019060200180831161262a57829003601f168201915b50505091835250506006820154602082015260078201546001600160a01b038082166040840152600160a01b90910460ff16151560608301526008909201549091166080909101528261269b6001846149a5565b815181106126ab576126ab614825565b602002602001018190525080806126c19061478d565b915050612344565b50905090565b600d54606090819081906001600160a01b031633146127005760405162461bcd60e51b81526004016106b3906147e3565b6001600160a01b0384166000908152600460209081526040918290208054835181840281018401909452808452909183018282801561275e57602002820191906000526020600020905b81548152602001906001019080831161274a575b505050505092506000806000600190505b60005481116128ff57600081815260056020908152604080832080548251818502810185019093528083529192909190849084015b828210156127ec576000848152602090819020604080518082019091526002850290910180546001600160a01b031682526001908101548284015290835290920191016127a4565b505050600084815260036020526040812060070154929350916001600160a01b038b81169116149050815b8351811015612872578a6001600160a01b031684828151811061283c5761283c614825565b6020026020010151600001516001600160a01b031614156128605760019250612872565b8061286a8161478d565b915050612817565b5081801561287e575080155b15612891578561288d8161478d565b9650505b6001835111801561289f5750805b156128e957896001600160a01b0316836000815181106128c1576128c1614825565b6020026020010151600001516001600160a01b0316146128e957846128e58161478d565b9550505b50505080806128f79061478d565b91505061276f565b50816001600160401b0381111561291857612918613e70565b604051908082528060200260200182016040528015612941578160200160208202803683370190505b509350806001600160401b0381111561295c5761295c613e70565b604051908082528060200260200182016040528015612985578160200160208202803683370190505b50925060008060015b6000548111612b5f57600081815260056020908152604080832080548251818502810185019093528083529192909190849084015b82821015612a0b576000848152602090819020604080518082019091526002850290910180546001600160a01b031682526001908101548284015290835290920191016129c3565b505050600084815260036020526040812060070154929350916001600160a01b038d81169116149050815b8351811015612a91578c6001600160a01b0316848281518110612a5b57612a5b614825565b6020026020010151600001516001600160a01b03161415612a7f5760019250612a91565b80612a898161478d565b915050612a36565b50818015612a9d575080155b15612ace57838a8781518110612ab557612ab5614825565b602090810291909101015285612aca8161478d565b9650505b60018351118015612adc5750805b8015612b1857508b6001600160a01b031683600081518110612b0057612b00614825565b6020026020010151600001516001600160a01b031614155b15612b495783898681518110612b3057612b30614825565b602090810291909101015284612b458161478d565b9550505b5050508080612b579061478d565b91505061298e565b50505050509193909250565b60008181526003602052604090206007015481906001600160a01b03163314612ba65760405162461bcd60e51b81526004016106b39061483b565b6000828152600360205260409020600801546001600160a01b0316612c0d5760405162461bcd60e51b815260206004820152601b60248201527f4e6f207472616e7366657220726571756573742070656e64696e67000000000060448201526064016106b3565b600082815260036020908152604080832060088101546007909101546001600160a01b0390811680865260049094529184209116925b8154811015612cf85785828281548110612c5f57612c5f614825565b90600052602060002001541415612ce65781548290612c80906001906149a5565b81548110612c9057612c90614825565b9060005260206000200154828281548110612cad57612cad614825565b906000526020600020018190555081805480612ccb57612ccb6149bc565b60019003818190600052602060002001600090559055612cf8565b80612cf08161478d565b915050612c43565b50612d0285613c44565b6000858152600b60209081526040808320839055600382528083206007810180546001600160a01b038981166001600160a81b03199092168217909255600890920180546001600160a01b031990811690915582865260048552838620805460018181018355918852868820018c90558b875260058652848720855180870187528581524281890190815282548085018455928a5298889020905160029092020180549093169084161782559551950194909455905188815290928516917f46f832fce5ed185c63ebb7f10c809c6ecbe7c0e49554433903d83d6dceef88f7910160405180910390a35050505050565b6001600160a01b038082166000908152600760209081526040808320815161012081019092528054909416815260018401805460609586958695869586959294859485948594919291840191612e479061487d565b80601f0160208091040260200160405190810160405280929190818152602001828054612e739061487d565b8015612ec05780601f10612e9557610100808354040283529160200191612ec0565b820191906000526020600020905b815481529060010190602001808311612ea357829003601f168201915b50505050508152602001600282018054612ed99061487d565b80601f0160208091040260200160405190810160405280929190818152602001828054612f059061487d565b8015612f525780601f10612f2757610100808354040283529160200191612f52565b820191906000526020600020905b815481529060010190602001808311612f3557829003601f168201915b50505050508152602001600382018054612f6b9061487d565b80601f0160208091040260200160405190810160405280929190818152602001828054612f979061487d565b8015612fe45780601f10612fb957610100808354040283529160200191612fe4565b820191906000526020600020905b815481529060010190602001808311612fc757829003601f168201915b50505050508152602001600482018054612ffd9061487d565b80601f01602080910402602001604051908101604052809291908181526020018280546130299061487d565b80156130765780601f1061304b57610100808354040283529160200191613076565b820191906000526020600020905b81548152906001019060200180831161305957829003601f168201915b5050505050815260200160058201805461308f9061487d565b80601f01602080910402602001604051908101604052809291908181526020018280546130bb9061487d565b80156131085780601f106130dd57610100808354040283529160200191613108565b820191906000526020600020905b8154815290600101906020018083116130eb57829003601f168201915b5050509183525050600682015460ff80821615156020808501919091526101009283900490911615156040808501919091526007909401546060938401528401519284015191840151608085015160a086015160c087015160e08801519790940151959f50939d50909b5099509097509550909350915050919395975091939597565b600460205281600052604060002081815481106131a757600080fd5b90600052602060002001600091509150505481565b600d546001600160a01b031633146131e65760405162461bcd60e51b81526004016106b3906147e3565b6001600160a01b038116600090815260076020526040902060060154610100900460ff1661324c5760405162461bcd60e51b8152602060048201526013602482015272155cd95c881b9bdd081c9959da5cdd195c9959606a1b60448201526064016106b3565b6001600160a01b03811660009081526007602052604090206006015460ff16156132b05760405162461bcd60e51b8152602060048201526015602482015274155cd95c88185b1c9958591e48185c1c1c9bdd9959605a1b60448201526064016106b3565b6001600160a01b03811660008181526007602090815260408083206006018054600160ff1991821681179092556009909352818420805490931617909155513392917fd9c01e75f7ea24b510e0bd9bb517232a8f86e1fc7ab85e4675748e30553b30a091a350565b6003602052600090815260409020805460018201805491929161333a9061487d565b80601f01602080910402602001604051908101604052809291908181526020018280546133669061487d565b80156133b35780601f10613388576101008083540402835291602001916133b3565b820191906000526020600020905b81548152906001019060200180831161339657829003601f168201915b5050505050908060020180546133c89061487d565b80601f01602080910402602001604051908101604052809291908181526020018280546133f49061487d565b80156134415780601f1061341657610100808354040283529160200191613441565b820191906000526020600020905b81548152906001019060200180831161342457829003601f168201915b5050505050908060030180546134569061487d565b80601f01602080910402602001604051908101604052809291908181526020018280546134829061487d565b80156134cf5780601f106134a4576101008083540402835291602001916134cf565b820191906000526020600020905b8154815290600101906020018083116134b257829003601f168201915b5050505050908060040180546134e49061487d565b80601f01602080910402602001604051908101604052809291908181526020018280546135109061487d565b801561355d5780601f106135325761010080835404028352916020019161355d565b820191906000526020600020905b81548152906001019060200180831161354057829003601f168201915b5050505050908060050180546135729061487d565b80601f016020809104026020016040519081016040528092919081815260200182805461359e9061487d565b80156135eb5780601f106135c0576101008083540402835291602001916135eb565b820191906000526020600020905b8154815290600101906020018083116135ce57829003601f168201915b5050505060068301546007840154600890940154929390926001600160a01b038083169350600160a01b90920460ff1691168a565b6005602052816000526040600020818154811061363c57600080fd5b6000918252602090912060029091020180546001909101546001600160a01b039091169250905082565b60608060608060606000806000600360008a815260200190815260200160002060405180610140016040529081600082015481526020016001820180546136ac9061487d565b80601f01602080910402602001604051908101604052809291908181526020018280546136d89061487d565b80156137255780601f106136fa57610100808354040283529160200191613725565b820191906000526020600020905b81548152906001019060200180831161370857829003601f168201915b5050505050815260200160028201805461373e9061487d565b80601f016020809104026020016040519081016040528092919081815260200182805461376a9061487d565b80156137b75780601f1061378c576101008083540402835291602001916137b7565b820191906000526020600020905b81548152906001019060200180831161379a57829003601f168201915b505050505081526020016003820180546137d09061487d565b80601f01602080910402602001604051908101604052809291908181526020018280546137fc9061487d565b80156138495780601f1061381e57610100808354040283529160200191613849565b820191906000526020600020905b81548152906001019060200180831161382c57829003601f168201915b505050505081526020016004820180546138629061487d565b80601f016020809104026020016040519081016040528092919081815260200182805461388e9061487d565b80156138db5780601f106138b0576101008083540402835291602001916138db565b820191906000526020600020905b8154815290600101906020018083116138be57829003601f168201915b505050505081526020016005820180546138f49061487d565b80601f01602080910402602001604051908101604052809291908181526020018280546139209061487d565b801561396d5780601f106139425761010080835404028352916020019161396d565b820191906000526020600020905b81548152906001019060200180831161395057829003601f168201915b5050509183525050600682015460208083019190915260078301546001600160a01b03808216604080860191909152600160a01b90920460ff161515606080860191909152600890950154166080938401529084015190840151928401519184015160a085015160c086015160e090960151929f949e50929c509a5090985091965090945092505050565b600d546060906001600160a01b03163314613a255760405162461bcd60e51b81526004016106b3906147e3565b6000805b600154811015613ab3576000818152600860209081526040808320546001600160a01b0316808452600790925290912060060154610100900460ff168015613a8d57506001600160a01b03811660009081526007602052604090206006015460ff16155b15613aa05782613a9c8161478d565b9350505b5080613aab8161478d565b915050613a29565b506000816001600160401b03811115613ace57613ace613e70565b604051908082528060200260200182016040528015613af7578160200160208202803683370190505b5090506000805b600154811015610af3576000818152600860209081526040808320546001600160a01b0316808452600790925290912060060154610100900460ff168015613b6257506001600160a01b03811660009081526007602052604090206006015460ff16155b15613ba05780848481518110613b7a57613b7a614825565b6001600160a01b039092166020928302919091019091015282613b9c8161478d565b9350505b5080613bab8161478d565b915050613afe565b6060600084848444613bc66001436149a5565b6040516f4c414e445f434552544946494341544560801b6020820152603081019590955260609390931b6bffffffffffffffffffffffff19166050850152606484019190915260848301524060a482015260c401604051602081830303815290604052805190602001209050613c3b81613c77565b95945050505050565b6000818152600b60205260409020548015613c73576000818152600a60205260409020600401805460ff191690555b5050565b604080518082018252601081526f181899199a1a9b1b9c1cb0b131b232b360811b6020820152815182815260608181018452926000919060208201818036833701905050905060005b6020811015613dcf57826004868360208110613cde57613cde614825565b1a60f81b6001600160f81b031916901c60f81c60ff1681518110613d0457613d04614825565b01602001516001600160f81b03191682613d1f8360026149d2565b81518110613d2f57613d2f614825565b60200101906001600160f81b031916908160001a90535082858260208110613d5957613d59614825565b825191901a600f16908110613d7057613d70614825565b01602001516001600160f81b03191682613d8b8360026149d2565b613d969060016149f1565b81518110613da657613da6614825565b60200101906001600160f81b031916908160001a90535080613dc78161478d565b915050613cc0565b509392505050565b828054613de39061487d565b90600052602060002090601f016020900481019282613e055760008555613e4b565b82601f10613e1e57805160ff1916838001178555613e4b565b82800160010185558215613e4b579182015b82811115613e4b578251825591602001919060010190613e30565b50613e57929150613e5b565b5090565b5b80821115613e575760008155600101613e5c565b634e487b7160e01b600052604160045260246000fd5b600082601f830112613e9757600080fd5b81356001600160401b0380821115613eb157613eb1613e70565b604051601f8301601f19908116603f01168101908282118183101715613ed957613ed9613e70565b81604052838152866020858801011115613ef257600080fd5b836020870160208301376000602085830101528094505050505092915050565b60008060008060008060c08789031215613f2b57600080fd5b86356001600160401b0380821115613f4257600080fd5b613f4e8a838b01613e86565b97506020890135915080821115613f6457600080fd5b613f708a838b01613e86565b96506040890135915080821115613f8657600080fd5b613f928a838b01613e86565b95506060890135915080821115613fa857600080fd5b613fb48a838b01613e86565b94506080890135915080821115613fca57600080fd5b50613fd789828a01613e86565b92505060a087013590509295509295509295565b600081518084526020808501945080840160005b838110156140245781516001600160a01b031687529582019590820190600101613fff565b509495945050505050565b6020815260006140426020830184613feb565b9392505050565b60006020828403121561405b57600080fd5b5035919050565b80356001600160a01b038116811461407957600080fd5b919050565b60006020828403121561409057600080fd5b61404282614062565b600081518084526020808501945080840160005b83811015614024578151875295820195908201906001016140ad565b6020815260006140426020830184614099565b6080815260006140ef6080830187613feb565b82810360208401526141018187614099565b905082810360408401526141158186614099565b905082810360608401526141298185614099565b979650505050505050565b60006020828403121561414657600080fd5b81356001600160401b0381111561415c57600080fd5b61416884828501613e86565b949350505050565b60005b8381101561418b578181015183820152602001614173565b8381111561419a576000848401525b50505050565b600081518084526141b8816020860160208601614170565b601f01601f19169290920160200192915050565b8581526001600160a01b038516602082015260a0604082018190526000906141f6908301866141a0565b6060830194909452509015156080909101529392505050565b6001600160a01b038a168152610120602082018190526000906142348382018c6141a0565b90508281036040840152614248818b6141a0565b9050828103606084015261425c818a6141a0565b9050828103608084015261427081896141a0565b905082810360a084015261428481886141a0565b95151560c0840152505091151560e0830152610100909101529695505050505050565b600080600080600060a086880312156142bf57600080fd5b85356001600160401b03808211156142d657600080fd5b6142e289838a01613e86565b965060208801359150808211156142f857600080fd5b61430489838a01613e86565b9550604088013591508082111561431a57600080fd5b61432689838a01613e86565b9450606088013591508082111561433c57600080fd5b61434889838a01613e86565b9350608088013591508082111561435e57600080fd5b5061436b88828901613e86565b9150509295509295909350565b602080825282518282018190526000919060409081850190868401855b828110156143c357815180516001600160a01b03168552860151868501529284019290850190600101614395565b5091979650505050505050565b60006020808301818452808551808352604092508286019150828160051b87010184880160005b838110156144eb57603f1989840301855281516101408151855288820151818a870152614426828701826141a0565b915050878201518582038987015261443e82826141a0565b9150506060808301518683038288015261445883826141a0565b925050506080808301518683038288015261447383826141a0565b9250505060a0808301518683038288015261448e83826141a0565b9250505060c080830151818701525060e0808301516144b7828801826001600160a01b03169052565b505061010082810151151590860152610120918201516001600160a01b0316919094015293860193908601906001016143f7565b509098975050505050505050565b60608152600061450c6060830186614099565b828103602084015261451e8186614099565b905082810360408401526145328185614099565b9695505050505050565b60006101008083526145508184018c6141a0565b90508281036020840152614564818b6141a0565b90508281036040840152614578818a6141a0565b9050828103606084015261458c81896141a0565b905082810360808401526145a081886141a0565b95151560a0840152505091151560c083015260e09091015295945050505050565b600080604083850312156145d457600080fd5b6145dd83614062565b946020939093013593505050565b60006101408c83528060208401526146058184018d6141a0565b90508281036040840152614619818c6141a0565b9050828103606084015261462d818b6141a0565b90508281036080840152614641818a6141a0565b905082810360a084015261465581896141a0565b60c084019790975250506001600160a01b0393841660e0820152911515610100830152909116610120909101529695505050505050565b6000806040838503121561469f57600080fd5b50508035926020909101359150565b60e0815260006146c160e083018a6141a0565b82810360208401526146d3818a6141a0565b905082810360408401526146e781896141a0565b905082810360608401526146fb81886141a0565b9050828103608084015261470f81876141a0565b60a084019590955250506001600160a01b039190911660c09091015295945050505050565b60008451614746818460208901614170565b84519083019061475a818360208901614170565b845191019061476d818360208801614170565b0195945050505050565b634e487b7160e01b600052601160045260246000fd5b60006000198214156147a1576147a1614777565b5060010190565b8481526001600160a01b03841660208201526080604082018190526000906147d2908301856141a0565b905082606083015295945050505050565b60208082526022908201527f4f6e6c792061646d696e2063616e20706572666f726d2074686973206163746960408201526137b760f11b606082015260800190565b634e487b7160e01b600052603260045260246000fd5b60208082526022908201527f596f7520617265206e6f7420746865206f776e6572206f662074686973206c616040820152611b9960f21b606082015260800190565b600181811c9082168061489157607f821691505b602082108114156148b257634e487b7160e01b600052602260045260246000fd5b50919050565b600082516148ca818460208701614170565b9190910192915050565b60208152600061404260208301846141a0565b600080835481600182811c91508083168061490357607f831692505b602080841082141561492357634e487b7160e01b86526022600452602486fd5b818015614937576001811461494857614975565b60ff19861689528489019650614975565b60008a81526020902060005b8681101561496d5781548b820152908501908301614954565b505084890196505b509498975050505050505050565b60408152600061499660408301856141a0565b90508260208301529392505050565b6000828210156149b7576149b7614777565b500390565b634e487b7160e01b600052603160045260246000fd5b60008160001904831182151516156149ec576149ec614777565b500290565b60008219821115614a0457614a04614777565b50019056fea26469706673582212208b7481f6a1dab3a152302ba7ca454b6f40db99fd4106b4d3d9b3779fc48fed4364736f6c63430008090033",
  "immutableReferences": {},
  "source": "// SPDX-License-Identifier: MIT\npragma solidity ^0.8.9;\n\ncontract LandRegistry {\n    struct Land {\n        uint256 id;\n        string plotNumber;\n        string area;\n        string district;\n        string city;\n        string state;\n        uint256 areaSqYd;\n        address owner;\n        bool isForSale;\n        address transferRequest;\n    }\n\n    struct OwnershipHistory {\n        address owner;\n        uint256 timestamp;\n    }\n\n    struct LandCertificate {\n        uint256 landId;\n        address owner;\n        string certificateHash;\n        uint256 issueDate;\n        bool isValid;\n    }\n\n    struct User {\n        address userAddress;\n        string fullName;\n        string email;\n        string phone;\n        string nationalId;\n        string homeAddress;\n        bool isApproved;\n        bool isRegistered;\n        uint256 registrationTime;\n    }\n\n    uint256 public landCount;\n    uint256 public userCount;\n    uint256 public certificateCount;\n    mapping(uint256 => Land) public lands;\n    mapping(address => uint256[]) public ownerLands;\n    mapping(uint256 => OwnershipHistory[]) public landOwnershipHistory;\n    mapping(bytes32 => bool) private landExists;\n    mapping(address => User) public users;\n    mapping(uint256 => address) public userAddresses;\n    mapping(address => bool) public approvedUsers;\n    mapping(uint256 => LandCertificate) public certificates;\n    mapping(uint256 => uint256) public landToCertificate; // landId => certificateId\n    mapping(string => bool) public certificateHashExists;\n\n    address public admin;\n\n    event LandRegistered(uint256 id, address owner, string plotNumber, uint256 areaSqYd);\n    event LandForSale(uint256 id, address owner);\n    event TransferRequested(uint256 id, address indexed requester, address indexed owner);\n    event TransferApproved(uint256 id, address indexed from, address indexed to);\n    event TransferDenied(uint256 id, address indexed requester, address indexed owner);\n    event UserRegistered(address indexed user, string fullName, uint256 timestamp);\n    event UserApproved(address indexed user, address indexed admin);\n    event UserRejected(address indexed user, address indexed admin);\n    event CertificateGenerated(uint256 indexed certificateId, uint256 indexed landId, address indexed owner, string certificateHash);\n\n    modifier onlyOwner(uint256 _landId) {\n        require(lands[_landId].owner == msg.sender, \"You are not the owner of this land\");\n        _;\n    }\n\n    modifier onlyAdmin() {\n        require(msg.sender == admin, \"Only admin can perform this action\");\n        _;\n    }\n\n    modifier onlyApprovedUser() {\n        require(approvedUsers[msg.sender], \"You must be an approved user to perform this action\");\n        _;\n    }\n\n    modifier onlyRegisteredUser() {\n        require(users[msg.sender].isRegistered, \"You must be registered to perform this action\");\n        _;\n    }\n\n    constructor() {\n        admin = msg.sender;\n        // Auto-approve the admin\n        users[admin] = User({\n            userAddress: admin,\n            fullName: \"System Administrator\",\n            email: \"admin@landregistry.com\",\n            phone: \"+1234567890\",\n            nationalId: \"ADMIN001\",\n            homeAddress: \"System Address\",\n            isApproved: true,\n            isRegistered: true,\n            registrationTime: block.timestamp\n        });\n        approvedUsers[admin] = true;\n        userAddresses[userCount] = admin;\n        userCount++;\n    }\n\n    // User registration function\n    function registerUser(\n        string memory _fullName,\n        string memory _email,\n        string memory _phone,\n        string memory _nationalId,\n        string memory _homeAddress\n    ) public {\n        require(!users[msg.sender].isRegistered, \"User already registered\");\n        require(bytes(_fullName).length > 0, \"Full name is required\");\n        require(bytes(_email).length > 0, \"Email is required\");\n        require(bytes(_nationalId).length > 0, \"National ID is required\");\n\n        users[msg.sender] = User({\n            userAddress: msg.sender,\n            fullName: _fullName,\n            email: _email,\n            phone: _phone,\n            nationalId: _nationalId,\n            homeAddress: _homeAddress,\n            isApproved: false,\n            isRegistered: true,\n            registrationTime: block.timestamp\n        });\n\n        userAddresses[userCount] = msg.sender;\n        userCount++;\n\n        emit UserRegistered(msg.sender, _fullName, block.timestamp);\n    }\n\n    // Admin function to approve user\n    function approveUser(address _userAddress) public onlyAdmin {\n        require(users[_userAddress].isRegistered, \"User not registered\");\n        require(!users[_userAddress].isApproved, \"User already approved\");\n\n        users[_userAddress].isApproved = true;\n        approvedUsers[_userAddress] = true;\n\n        emit UserApproved(_userAddress, msg.sender);\n    }\n\n    // Admin function to reject user\n    function rejectUser(address _userAddress) public onlyAdmin {\n        require(users[_userAddress].isRegistered, \"User not registered\");\n        require(!users[_userAddress].isApproved, \"User already approved\");\n\n        users[_userAddress].isApproved = false;\n        users[_userAddress].isRegistered = false;\n        \n        emit UserRejected(_userAddress, msg.sender);\n    }\n\n    // Get all pending users for admin review\n    function getPendingUsers() public view onlyAdmin returns (address[] memory) {\n        uint256 pendingCount = 0;\n        \n        // Count pending users\n        for (uint256 i = 0; i < userCount; i++) {\n            address userAddr = userAddresses[i];\n            if (users[userAddr].isRegistered && !users[userAddr].isApproved) {\n                pendingCount++;\n            }\n        }\n        \n        // Create array of pending users\n        address[] memory pendingUsers = new address[](pendingCount);\n        uint256 index = 0;\n        \n        for (uint256 i = 0; i < userCount; i++) {\n            address userAddr = userAddresses[i];\n            if (users[userAddr].isRegistered && !users[userAddr].isApproved) {\n                pendingUsers[index] = userAddr;\n                index++;\n            }\n        }\n        \n        return pendingUsers;\n    }\n\n    // Get all approved users\n    function getApprovedUsers() public view onlyAdmin returns (address[] memory) {\n        uint256 approvedCount = 0;\n        \n        // Count approved users\n        for (uint256 i = 0; i < userCount; i++) {\n            address userAddr = userAddresses[i];\n            if (users[userAddr].isApproved) {\n                approvedCount++;\n            }\n        }\n        \n        // Create array of approved users\n        address[] memory approvedUsersList = new address[](approvedCount);\n        uint256 index = 0;\n        \n        for (uint256 i = 0; i < userCount; i++) {\n            address userAddr = userAddresses[i];\n            if (users[userAddr].isApproved) {\n                approvedUsersList[index] = userAddr;\n                index++;\n            }\n        }\n        \n        return approvedUsersList;\n    }\n\n    // Check if user is approved\n    function isUserApproved(address _userAddress) public view returns (bool) {\n        return approvedUsers[_userAddress];\n    }\n\n    // Get user details\n    function getUserDetails(address _userAddress) public view returns (\n        string memory fullName,\n        string memory email,\n        string memory phone,\n        string memory nationalId,\n        string memory homeAddress,\n        bool isApproved,\n        bool isRegistered,\n        uint256 registrationTime\n    ) {\n        User memory user = users[_userAddress];\n        return (\n            user.fullName,\n            user.email,\n            user.phone,\n            user.nationalId,\n            user.homeAddress,\n            user.isApproved,\n            user.isRegistered,\n            user.registrationTime\n        );\n    }\n\n    // Land registration function - requires approved user\n    function registerLand(\n        string memory _plotNumber,\n        string memory _area,\n        string memory _district,\n        string memory _city,\n        string memory _state,\n        uint256 _areaSqYd\n    ) public onlyApprovedUser {\n        bytes32 landHash = keccak256(abi.encodePacked(_plotNumber, _district, _state));\n        require(!landExists[landHash], \"Error: Land with these details is already registered\");\n\n        landCount++;\n        lands[landCount] = Land(\n            landCount,\n            _plotNumber,\n            _area,\n            _district,\n            _city,\n            _state,\n            _areaSqYd,\n            msg.sender, // The person calling the function is the owner\n            false,\n            address(0)\n        );\n\n        landExists[landHash] = true;\n        ownerLands[msg.sender].push(landCount);\n        landOwnershipHistory[landCount].push(OwnershipHistory(msg.sender, block.timestamp));\n\n        emit LandRegistered(landCount, msg.sender, _plotNumber, _areaSqYd);\n    }\n    \n    // All other functions remain the same as our previous version...\n\n    function putLandForSale(uint256 _landId) public onlyOwner(_landId) {\n        lands[_landId].isForSale = true;\n        emit LandForSale(_landId, msg.sender);\n    }\n\n    function requestTransfer(uint256 _landId) public {\n        require(lands[_landId].isForSale, \"Land is not for sale\");\n        require(lands[_landId].transferRequest == address(0), \"Transfer already requested by someone\");\n        require(msg.sender != lands[_landId].owner, \"Owner cannot request transfer to themselves\");\n\n        lands[_landId].transferRequest = msg.sender;\n        emit TransferRequested(_landId, msg.sender, lands[_landId].owner);\n    }\n\n    function approveTransfer(uint256 _landId) public onlyOwner(_landId) {\n        require(lands[_landId].transferRequest != address(0), \"No transfer request pending\");\n        address newOwner = lands[_landId].transferRequest;\n        address previousOwner = lands[_landId].owner;\n        \n        // Remove from previous owner's list\n        uint256[] storage ownerLandList = ownerLands[previousOwner];\n        for (uint256 i = 0; i < ownerLandList.length; i++) {\n            if (ownerLandList[i] == _landId) {\n                ownerLandList[i] = ownerLandList[ownerLandList.length - 1];\n                ownerLandList.pop();\n                break;\n            }\n        }\n        \n        // Invalidate existing certificate\n        invalidateCertificate(_landId);\n        landToCertificate[_landId] = 0; // Reset certificate mapping\n        \n        // Transfer ownership\n        lands[_landId].owner = newOwner;\n        lands[_landId].isForSale = false;\n        lands[_landId].transferRequest = address(0);\n        ownerLands[newOwner].push(_landId);\n        landOwnershipHistory[_landId].push(OwnershipHistory(newOwner, block.timestamp));\n        \n        emit TransferApproved(_landId, previousOwner, newOwner);\n    }\n\n    function denyTransfer(uint256 _landId) public onlyOwner(_landId) {\n        require(lands[_landId].transferRequest != address(0), \"No transfer request pending\");\n        address requester = lands[_landId].transferRequest;\n        lands[_landId].transferRequest = address(0);\n        emit TransferDenied(_landId, requester, msg.sender);\n    }\n\n    function verifyLand(uint256 _landId) public view returns (string memory, string memory, string memory, string memory, string memory, uint256, address) {\n        Land memory land = lands[_landId];\n        return (land.plotNumber, land.area, land.district, land.city, land.state, land.areaSqYd, land.owner);\n    }\n\n    function getLandsByOwner(address _owner) public view returns (uint256[] memory) {\n        return ownerLands[_owner];\n    }\n\n    function getPendingTransferRequests(address _owner) public view returns (uint256[] memory) {\n        uint256[] memory ownedLands = ownerLands[_owner];\n        uint256 pendingCount = 0;\n        for (uint256 i = 0; i < ownedLands.length; i++) {\n            if (lands[ownedLands[i]].transferRequest != address(0)) {\n                pendingCount++;\n            }\n        }\n        uint256[] memory pendingRequests = new uint256[](pendingCount);\n        uint256 index = 0;\n        for (uint256 i = 0; i < ownedLands.length; i++) {\n            uint256 landId = ownedLands[i];\n            if (lands[landId].transferRequest != address(0)) {\n                pendingRequests[index] = landId;\n                index++;\n            }\n        }\n        return pendingRequests;\n    }\n\n    function getAllLands() public view onlyAdmin returns (Land[] memory) {\n        Land[] memory allLands = new Land[](landCount);\n        for (uint256 i = 1; i <= landCount; i++) {\n            allLands[i - 1] = lands[i];\n        }\n        return allLands;\n    }\n\n    function getPastOwnershipDetails(uint256 _landId) public view returns (OwnershipHistory[] memory) {\n        return landOwnershipHistory[_landId];\n    }\n\n    // Get all transactions for a specific user (admin only)\n    function getUserTransactionHistory(address _userAddress) public view onlyAdmin returns (\n        uint256[] memory ownedLandIds,\n        uint256[] memory soldLandIds,\n        uint256[] memory purchasedLandIds\n    ) {\n        // Current owned lands\n        ownedLandIds = ownerLands[_userAddress];\n        \n        // Count lands sold and purchased\n        uint256 soldCount = 0;\n        uint256 purchasedCount = 0;\n        \n        for (uint256 i = 1; i <= landCount; i++) {\n            OwnershipHistory[] memory history = landOwnershipHistory[i];\n            \n            // Check if user has sold this land (was owner but not current owner)\n            bool wasPreviousOwner = false;\n            bool isCurrentOwner = lands[i].owner == _userAddress;\n            \n            for (uint256 j = 0; j < history.length; j++) {\n                if (history[j].owner == _userAddress) {\n                    wasPreviousOwner = true;\n                    break;\n                }\n            }\n            \n            if (wasPreviousOwner && !isCurrentOwner) {\n                soldCount++;\n            }\n            \n            // Check if user has purchased this land (not the original registerer)\n            if (history.length > 1 && isCurrentOwner) {\n                if (history[0].owner != _userAddress) {\n                    purchasedCount++;\n                }\n            }\n        }\n        \n        // Build arrays for sold and purchased lands\n        soldLandIds = new uint256[](soldCount);\n        purchasedLandIds = new uint256[](purchasedCount);\n        \n        uint256 soldIndex = 0;\n        uint256 purchasedIndex = 0;\n        \n        for (uint256 i = 1; i <= landCount; i++) {\n            OwnershipHistory[] memory history = landOwnershipHistory[i];\n            bool wasPreviousOwner = false;\n            bool isCurrentOwner = lands[i].owner == _userAddress;\n            \n            for (uint256 j = 0; j < history.length; j++) {\n                if (history[j].owner == _userAddress) {\n                    wasPreviousOwner = true;\n                    break;\n                }\n            }\n            \n            if (wasPreviousOwner && !isCurrentOwner) {\n                soldLandIds[soldIndex] = i;\n                soldIndex++;\n            }\n            \n            if (history.length > 1 && isCurrentOwner && history[0].owner != _userAddress) {\n                purchasedLandIds[purchasedIndex] = i;\n                purchasedIndex++;\n            }\n        }\n        \n        return (ownedLandIds, soldLandIds, purchasedLandIds);\n    }\n    \n    // Get transaction summary for all users (admin only)\n    function getAllUsersTransactionSummary() public view onlyAdmin returns (\n        address[] memory userAddressList,\n        uint256[] memory registeredCount,\n        uint256[] memory soldCount,\n        uint256[] memory purchasedCount\n    ) {\n        // Create arrays for all registered users\n        userAddressList = new address[](userCount);\n        registeredCount = new uint256[](userCount);\n        soldCount = new uint256[](userCount);\n        purchasedCount = new uint256[](userCount);\n        \n        for (uint256 i = 0; i < userCount; i++) {\n            address userAddr = userAddresses[i];\n            userAddressList[i] = userAddr;\n            \n            // Count registered lands (lands they originally registered)\n            uint256 regCount = 0;\n            uint256 soldLands = 0;\n            uint256 purchasedLands = 0;\n            \n            for (uint256 j = 1; j <= landCount; j++) {\n                OwnershipHistory[] memory history = landOwnershipHistory[j];\n                \n                if (history.length > 0) {\n                    // Original registerer\n                    if (history[0].owner == userAddr) {\n                        regCount++;\n                    }\n                    \n                    // Check for sales and purchases\n                    bool wasPreviousOwner = false;\n                    bool isCurrentOwner = lands[j].owner == userAddr;\n                    \n                    for (uint256 k = 0; k < history.length; k++) {\n                        if (history[k].owner == userAddr) {\n                            wasPreviousOwner = true;\n                            break;\n                        }\n                    }\n                    \n                    if (wasPreviousOwner && !isCurrentOwner) {\n                        soldLands++;\n                    }\n                    \n                    if (history.length > 1 && isCurrentOwner && history[0].owner != userAddr) {\n                        purchasedLands++;\n                    }\n                }\n            }\n            \n            registeredCount[i] = regCount;\n            soldCount[i] = soldLands;\n            purchasedCount[i] = purchasedLands;\n        }\n        \n        return (userAddressList, registeredCount, soldCount, purchasedCount);\n    }\n\n    // Generate Land Certificate (only land owner can generate)\n    function generateLandCertificate(uint256 _landId) public returns (uint256) {\n        require(lands[_landId].owner == msg.sender, \"Only the land owner can generate certificate\");\n        require(landToCertificate[_landId] == 0, \"Certificate already exists for this land\");\n        \n        certificateCount++;\n        \n        // Generate unique certificate hash\n        string memory certificateHash = generateCertificateHash(_landId, msg.sender, block.timestamp);\n        require(!certificateHashExists[certificateHash], \"Certificate hash collision (very rare)\");\n        \n        // Create certificate\n        certificates[certificateCount] = LandCertificate({\n            landId: _landId,\n            owner: msg.sender,\n            certificateHash: certificateHash,\n            issueDate: block.timestamp,\n            isValid: true\n        });\n        \n        // Map land to certificate\n        landToCertificate[_landId] = certificateCount;\n        certificateHashExists[certificateHash] = true;\n        \n        emit CertificateGenerated(certificateCount, _landId, msg.sender, certificateHash);\n        \n        return certificateCount;\n    }\n    \n    // Generate unique certificate hash\n    function generateCertificateHash(uint256 _landId, address _owner, uint256 _timestamp) private view returns (string memory) {\n        bytes32 hash = keccak256(abi.encodePacked(\n            \"LAND_CERTIFICATE\",\n            _landId,\n            _owner,\n            _timestamp,\n            block.difficulty,\n            blockhash(block.number - 1)\n        ));\n        return toHexString(hash);\n    }\n    \n    // Convert bytes32 to hex string\n    function toHexString(bytes32 data) private pure returns (string memory) {\n        bytes memory alphabet = \"0123456789abcdef\";\n        bytes memory str = new bytes(64);\n        for (uint256 i = 0; i < 32; i++) {\n            str[i*2] = alphabet[uint8(data[i] >> 4)];\n            str[1+i*2] = alphabet[uint8(data[i] & 0x0f)];\n        }\n        return string(str);\n    }\n    \n    // Get certificate for a land\n    function getCertificate(uint256 _landId) public view returns (\n        uint256 certificateId,\n        address owner,\n        string memory certificateHash,\n        uint256 issueDate,\n        bool isValid\n    ) {\n        certificateId = landToCertificate[_landId];\n        require(certificateId > 0, \"No certificate exists for this land\");\n        \n        LandCertificate memory cert = certificates[certificateId];\n        return (certificateId, cert.owner, cert.certificateHash, cert.issueDate, cert.isValid);\n    }\n    \n    // Verify certificate by hash\n    function verifyCertificateHash(string memory _certificateHash) public view returns (\n        bool exists,\n        uint256 landId,\n        address owner,\n        uint256 issueDate\n    ) {\n        if (!certificateHashExists[_certificateHash]) {\n            return (false, 0, address(0), 0);\n        }\n        \n        // Find certificate by hash (linear search - could be optimized)\n        for (uint256 i = 1; i <= certificateCount; i++) {\n            if (keccak256(bytes(certificates[i].certificateHash)) == keccak256(bytes(_certificateHash))) {\n                return (\n                    certificates[i].isValid,\n                    certificates[i].landId,\n                    certificates[i].owner,\n                    certificates[i].issueDate\n                );\n            }\n        }\n        \n        return (false, 0, address(0), 0);\n    }\n    \n    // Check if land has certificate\n    function landHasCertificate(uint256 _landId) public view returns (bool) {\n        return landToCertificate[_landId] > 0;\n    }\n    \n    // Invalidate certificate (only by admin or in case of ownership transfer)\n    function invalidateCertificate(uint256 _landId) internal {\n        uint256 certificateId = landToCertificate[_landId];\n        if (certificateId > 0) {\n            certificates[certificateId].isValid = false;\n        }\n    }\n}",
  "sourcePath": "/Users/sachinmac/FinalYearProject-LandRegistry/contracts/LandRegistry.sol",
  "compiler": {
    "name": "solc",
    "version": "0.8.9+commit.e5eed63a.Emscripten.clang"
  },
  "schemaVersion": "3.4.16",
  "updatedAt": "2025-09-24T08:47:46.982Z",
  "networkType": "ethereum",
  "devdoc": {
    "kind": "dev",
    "methods": {},
    "version": 1
  },
  "userdoc": {
    "kind": "user",
    "methods": {},
    "version": 1
  }
}