{
  "contractName": "LandRegistry",
  "abi": [
    {
      "inputs": [],
      "stateMutability": "nonpayable",
      "type": "constructor"
    },
    {
      "anonymous": false,
      "inputs": [
        {
          "indexed": false,
          "internalType": "uint256",
          "name": "id",
          "type": "uint256"
        },
        {
          "indexed": false,
          "internalType": "address",
          "name": "owner",
          "type": "address"
        }
      ],
      "name": "LandForSale",
      "type": "event"
    },
    {
      "anonymous": false,
      "inputs": [
        {
          "indexed": false,
          "internalType": "uint256",
          "name": "id",
          "type": "uint256"
        },
        {
          "indexed": false,
          "internalType": "address",
          "name": "owner",
          "type": "address"
        },
        {
          "indexed": false,
          "internalType": "string",
          "name": "plotNumber",
          "type": "string"
        },
        {
          "indexed": false,
          "internalType": "uint256",
          "name": "areaSqYd",
          "type": "uint256"
        }
      ],
      "name": "LandRegistered",
      "type": "event"
    },
    {
      "anonymous": false,
      "inputs": [
        {
          "indexed": false,
          "internalType": "uint256",
          "name": "id",
          "type": "uint256"
        },
        {
          "indexed": true,
          "internalType": "address",
          "name": "from",
          "type": "address"
        },
        {
          "indexed": true,
          "internalType": "address",
          "name": "to",
          "type": "address"
        }
      ],
      "name": "TransferApproved",
      "type": "event"
    },
    {
      "anonymous": false,
      "inputs": [
        {
          "indexed": false,
          "internalType": "uint256",
          "name": "id",
          "type": "uint256"
        },
        {
          "indexed": true,
          "internalType": "address",
          "name": "requester",
          "type": "address"
        },
        {
          "indexed": true,
          "internalType": "address",
          "name": "owner",
          "type": "address"
        }
      ],
      "name": "TransferDenied",
      "type": "event"
    },
    {
      "anonymous": false,
      "inputs": [
        {
          "indexed": false,
          "internalType": "uint256",
          "name": "id",
          "type": "uint256"
        },
        {
          "indexed": true,
          "internalType": "address",
          "name": "requester",
          "type": "address"
        },
        {
          "indexed": true,
          "internalType": "address",
          "name": "owner",
          "type": "address"
        }
      ],
      "name": "TransferRequested",
      "type": "event"
    },
    {
      "inputs": [],
      "name": "admin",
      "outputs": [
        {
          "internalType": "address",
          "name": "",
          "type": "address"
        }
      ],
      "stateMutability": "view",
      "type": "function",
      "constant": true
    },
    {
      "inputs": [],
      "name": "landCount",
      "outputs": [
        {
          "internalType": "uint256",
          "name": "",
          "type": "uint256"
        }
      ],
      "stateMutability": "view",
      "type": "function",
      "constant": true
    },
    {
      "inputs": [
        {
          "internalType": "uint256",
          "name": "",
          "type": "uint256"
        },
        {
          "internalType": "uint256",
          "name": "",
          "type": "uint256"
        }
      ],
      "name": "landOwnershipHistory",
      "outputs": [
        {
          "internalType": "address",
          "name": "owner",
          "type": "address"
        },
        {
          "internalType": "uint256",
          "name": "timestamp",
          "type": "uint256"
        }
      ],
      "stateMutability": "view",
      "type": "function",
      "constant": true
    },
    {
      "inputs": [
        {
          "internalType": "uint256",
          "name": "",
          "type": "uint256"
        }
      ],
      "name": "lands",
      "outputs": [
        {
          "internalType": "uint256",
          "name": "id",
          "type": "uint256"
        },
        {
          "internalType": "string",
          "name": "plotNumber",
          "type": "string"
        },
        {
          "internalType": "string",
          "name": "area",
          "type": "string"
        },
        {
          "internalType": "string",
          "name": "district",
          "type": "string"
        },
        {
          "internalType": "string",
          "name": "city",
          "type": "string"
        },
        {
          "internalType": "string",
          "name": "state",
          "type": "string"
        },
        {
          "internalType": "uint256",
          "name": "areaSqYd",
          "type": "uint256"
        },
        {
          "internalType": "address",
          "name": "owner",
          "type": "address"
        },
        {
          "internalType": "bool",
          "name": "isForSale",
          "type": "bool"
        },
        {
          "internalType": "address",
          "name": "transferRequest",
          "type": "address"
        }
      ],
      "stateMutability": "view",
      "type": "function",
      "constant": true
    },
    {
      "inputs": [
        {
          "internalType": "address",
          "name": "",
          "type": "address"
        },
        {
          "internalType": "uint256",
          "name": "",
          "type": "uint256"
        }
      ],
      "name": "ownerLands",
      "outputs": [
        {
          "internalType": "uint256",
          "name": "",
          "type": "uint256"
        }
      ],
      "stateMutability": "view",
      "type": "function",
      "constant": true
    },
    {
      "inputs": [
        {
          "internalType": "string",
          "name": "_plotNumber",
          "type": "string"
        },
        {
          "internalType": "string",
          "name": "_area",
          "type": "string"
        },
        {
          "internalType": "string",
          "name": "_district",
          "type": "string"
        },
        {
          "internalType": "string",
          "name": "_city",
          "type": "string"
        },
        {
          "internalType": "string",
          "name": "_state",
          "type": "string"
        },
        {
          "internalType": "uint256",
          "name": "_areaSqYd",
          "type": "uint256"
        }
      ],
      "name": "registerLand",
      "outputs": [],
      "stateMutability": "nonpayable",
      "type": "function"
    },
    {
      "inputs": [
        {
          "internalType": "uint256",
          "name": "_landId",
          "type": "uint256"
        }
      ],
      "name": "putLandForSale",
      "outputs": [],
      "stateMutability": "nonpayable",
      "type": "function"
    },
    {
      "inputs": [
        {
          "internalType": "uint256",
          "name": "_landId",
          "type": "uint256"
        }
      ],
      "name": "requestTransfer",
      "outputs": [],
      "stateMutability": "nonpayable",
      "type": "function"
    },
    {
      "inputs": [
        {
          "internalType": "uint256",
          "name": "_landId",
          "type": "uint256"
        }
      ],
      "name": "approveTransfer",
      "outputs": [],
      "stateMutability": "nonpayable",
      "type": "function"
    },
    {
      "inputs": [
        {
          "internalType": "uint256",
          "name": "_landId",
          "type": "uint256"
        }
      ],
      "name": "denyTransfer",
      "outputs": [],
      "stateMutability": "nonpayable",
      "type": "function"
    },
    {
      "inputs": [
        {
          "internalType": "uint256",
          "name": "_landId",
          "type": "uint256"
        }
      ],
      "name": "verifyLand",
      "outputs": [
        {
          "internalType": "string",
          "name": "",
          "type": "string"
        },
        {
          "internalType": "string",
          "name": "",
          "type": "string"
        },
        {
          "internalType": "string",
          "name": "",
          "type": "string"
        },
        {
          "internalType": "string",
          "name": "",
          "type": "string"
        },
        {
          "internalType": "string",
          "name": "",
          "type": "string"
        },
        {
          "internalType": "uint256",
          "name": "",
          "type": "uint256"
        },
        {
          "internalType": "address",
          "name": "",
          "type": "address"
        }
      ],
      "stateMutability": "view",
      "type": "function",
      "constant": true
    },
    {
      "inputs": [
        {
          "internalType": "address",
          "name": "_owner",
          "type": "address"
        }
      ],
      "name": "getLandsByOwner",
      "outputs": [
        {
          "internalType": "uint256[]",
          "name": "",
          "type": "uint256[]"
        }
      ],
      "stateMutability": "view",
      "type": "function",
      "constant": true
    },
    {
      "inputs": [
        {
          "internalType": "address",
          "name": "_owner",
          "type": "address"
        }
      ],
      "name": "getPendingTransferRequests",
      "outputs": [
        {
          "internalType": "uint256[]",
          "name": "",
          "type": "uint256[]"
        }
      ],
      "stateMutability": "view",
      "type": "function",
      "constant": true
    },
    {
      "inputs": [],
      "name": "getAllLands",
      "outputs": [
        {
          "components": [
            {
              "internalType": "uint256",
              "name": "id",
              "type": "uint256"
            },
            {
              "internalType": "string",
              "name": "plotNumber",
              "type": "string"
            },
            {
              "internalType": "string",
              "name": "area",
              "type": "string"
            },
            {
              "internalType": "string",
              "name": "district",
              "type": "string"
            },
            {
              "internalType": "string",
              "name": "city",
              "type": "string"
            },
            {
              "internalType": "string",
              "name": "state",
              "type": "string"
            },
            {
              "internalType": "uint256",
              "name": "areaSqYd",
              "type": "uint256"
            },
            {
              "internalType": "address",
              "name": "owner",
              "type": "address"
            },
            {
              "internalType": "bool",
              "name": "isForSale",
              "type": "bool"
            },
            {
              "internalType": "address",
              "name": "transferRequest",
              "type": "address"
            }
          ],
          "internalType": "struct LandRegistry.Land[]",
          "name": "",
          "type": "tuple[]"
        }
      ],
      "stateMutability": "view",
      "type": "function",
      "constant": true
    },
    {
      "inputs": [
        {
          "internalType": "uint256",
          "name": "_landId",
          "type": "uint256"
        }
      ],
      "name": "getPastOwnershipDetails",
      "outputs": [
        {
          "components": [
            {
              "internalType": "address",
              "name": "owner",
              "type": "address"
            },
            {
              "internalType": "uint256",
              "name": "timestamp",
              "type": "uint256"
            }
          ],
          "internalType": "struct LandRegistry.OwnershipHistory[]",
          "name": "",
          "type": "tuple[]"
        }
      ],
      "stateMutability": "view",
      "type": "function",
      "constant": true
    }
  ],
  "bytecode": "0x608060405234801561001057600080fd5b5033600560006101000a81548173ffffffffffffffffffffffffffffffffffffffff021916908373ffffffffffffffffffffffffffffffffffffffff160217905550613571806100616000396000f3fe608060405234801561001057600080fd5b50600436106100f55760003560e01c8063b7b6e54311610097578063e261f1e511610066578063e261f1e514610282578063e6ba2859146102bb578063f851a440146102ec578063f9c43bdf1461030a576100f5565b8063b7b6e543146101fa578063cacca4a014610218578063d0dea6e214610234578063d7bce65814610264576100f5565b80634d3edb76116100d35780634d3edb76146101765780637f092fa9146101925780638a921a9a146101ae578063b2882724146101ca576100f5565b80630f6f51d4146100fa57806334d2b2aa14610116578063455b9d2314610146575b600080fd5b610114600480360381019061010f9190612658565b610340565b005b610130600480360381019061012b91906127cf565b610762565b60405161013d91906128ba565b60405180910390f35b610160600480360381019061015b91906127cf565b6109dd565b60405161016d91906128ba565b60405180910390f35b610190600480360381019061018b91906128dc565b610a74565b005b6101ac60048036038101906101a791906128dc565b610cba565b005b6101c860048036038101906101c391906128dc565b610dca565b005b6101e460048036038101906101df91906128dc565b61106a565b6040516101f191906129f6565b60405180910390f35b61020261113c565b60405161020f9190612c73565b60405180910390f35b610232600480360381019061022d91906128dc565b611650565b005b61024e60048036038101906102499190612c95565b611b7d565b60405161025b9190612ce4565b60405180910390f35b61026c611bae565b6040516102799190612ce4565b60405180910390f35b61029c600480360381019061029791906128dc565b611bb4565b6040516102b29a99989796959493929190612d67565b60405180910390f35b6102d560048036038101906102d09190612e26565b611efd565b6040516102e3929190612e66565b60405180910390f35b6102f4611f5e565b6040516103019190612e8f565b60405180910390f35b610324600480360381019061031f91906128dc565b611f84565b6040516103379796959493929190612eaa565b60405180910390f35b600086858460405160200161035793929190612f78565b6040516020818303038152906040528051906020012090506004600082815260200190815260200160002060009054906101000a900460ff16156103d0576040517f08c379a00000000000000000000000000000000000000000000000000000000081526004016103c79061301b565b60405180910390fd5b6000808154809291906103e29061306a565b919050555060405180610140016040528060005481526020018881526020018781526020018681526020018581526020018481526020018381526020013373ffffffffffffffffffffffffffffffffffffffff168152602001600015158152602001600073ffffffffffffffffffffffffffffffffffffffff1681525060016000805481526020019081526020016000206000820151816000015560208201518160010190805190602001906104999291906123a4565b5060408201518160020190805190602001906104b69291906123a4565b5060608201518160030190805190602001906104d39291906123a4565b5060808201518160040190805190602001906104f09291906123a4565b5060a082015181600501908051906020019061050d9291906123a4565b5060c0820151816006015560e08201518160070160006101000a81548173ffffffffffffffffffffffffffffffffffffffff021916908373ffffffffffffffffffffffffffffffffffffffff1602179055506101008201518160070160146101000a81548160ff0219169083151502179055506101208201518160080160006101000a81548173ffffffffffffffffffffffffffffffffffffffff021916908373ffffffffffffffffffffffffffffffffffffffff16021790555090505060016004600083815260200190815260200160002060006101000a81548160ff021916908315150217905550600260003373ffffffffffffffffffffffffffffffffffffffff1673ffffffffffffffffffffffffffffffffffffffff1681526020019081526020016000206000549080600181540180825580915050600190039060005260206000200160009091909190915055600360008054815260200190815260200160002060405180604001604052803373ffffffffffffffffffffffffffffffffffffffff16815260200142815250908060018154018082558091505060019003906000526020600020906002020160009091909190915060008201518160000160006101000a81548173ffffffffffffffffffffffffffffffffffffffff021916908373ffffffffffffffffffffffffffffffffffffffff1602179055506020820151816001015550507f09f87bd638cbe9814396205461896d192bb615baa655b37f43ef8414a75b7fd560005433898560405161075194939291906130b3565b60405180910390a150505050505050565b60606000600260008473ffffffffffffffffffffffffffffffffffffffff1673ffffffffffffffffffffffffffffffffffffffff1681526020019081526020016000208054806020026020016040519081016040528092919081815260200182805480156107ef57602002820191906000526020600020905b8154815260200190600101908083116107db575b505050505090506000805b82518110156108a957600073ffffffffffffffffffffffffffffffffffffffff1660016000858481518110610832576108316130ff565b5b6020026020010151815260200190815260200160002060080160009054906101000a900473ffffffffffffffffffffffffffffffffffffffff1673ffffffffffffffffffffffffffffffffffffffff16146108965781806108929061306a565b9250505b80806108a19061306a565b9150506107fa565b5060008167ffffffffffffffff8111156108c6576108c56124f7565b5b6040519080825280602002602001820160405280156108f45781602001602082028036833780820191505090505b5090506000805b84518110156109d0576000858281518110610919576109186130ff565b5b60200260200101519050600073ffffffffffffffffffffffffffffffffffffffff166001600083815260200190815260200160002060080160009054906101000a900473ffffffffffffffffffffffffffffffffffffffff1673ffffffffffffffffffffffffffffffffffffffff16146109bc57808484815181106109a1576109a06130ff565b5b60200260200101818152505082806109b89061306a565b9350505b5080806109c89061306a565b9150506108fb565b5081945050505050919050565b6060600260008373ffffffffffffffffffffffffffffffffffffffff1673ffffffffffffffffffffffffffffffffffffffff168152602001908152602001600020805480602002602001604051908101604052809291908181526020018280548015610a6857602002820191906000526020600020905b815481526020019060010190808311610a54575b50505050509050919050565b803373ffffffffffffffffffffffffffffffffffffffff166001600083815260200190815260200160002060070160009054906101000a900473ffffffffffffffffffffffffffffffffffffffff1673ffffffffffffffffffffffffffffffffffffffff1614610b19576040517f08c379a0000000000000000000000000000000000000000000000000000000008152600401610b10906131a0565b60405180910390fd5b600073ffffffffffffffffffffffffffffffffffffffff166001600084815260200190815260200160002060080160009054906101000a900473ffffffffffffffffffffffffffffffffffffffff1673ffffffffffffffffffffffffffffffffffffffff161415610bbf576040517f08c379a0000000000000000000000000000000000000000000000000000000008152600401610bb69061320c565b60405180910390fd5b60006001600084815260200190815260200160002060080160009054906101000a900473ffffffffffffffffffffffffffffffffffffffff16905060006001600085815260200190815260200160002060080160006101000a81548173ffffffffffffffffffffffffffffffffffffffff021916908373ffffffffffffffffffffffffffffffffffffffff1602179055503373ffffffffffffffffffffffffffffffffffffffff168173ffffffffffffffffffffffffffffffffffffffff167fa3c0d3fbb03e51519f4b24f4aec27d3efd1f9d7748eae4e08d59fe9d220a988185604051610cad9190612ce4565b60405180910390a3505050565b803373ffffffffffffffffffffffffffffffffffffffff166001600083815260200190815260200160002060070160009054906101000a900473ffffffffffffffffffffffffffffffffffffffff1673ffffffffffffffffffffffffffffffffffffffff1614610d5f576040517f08c379a0000000000000000000000000000000000000000000000000000000008152600401610d56906131a0565b60405180910390fd5b600180600084815260200190815260200160002060070160146101000a81548160ff0219169083151502179055507f51e6f3eba237bf90825acfdc7a247609979c40c5e56ccf677d9a76459b2588ea8233604051610dbe92919061322c565b60405180910390a15050565b6001600082815260200190815260200160002060070160149054906101000a900460ff16610e2d576040517f08c379a0000000000000000000000000000000000000000000000000000000008152600401610e24906132a1565b60405180910390fd5b600073ffffffffffffffffffffffffffffffffffffffff166001600083815260200190815260200160002060080160009054906101000a900473ffffffffffffffffffffffffffffffffffffffff1673ffffffffffffffffffffffffffffffffffffffff1614610ed2576040517f08c379a0000000000000000000000000000000000000000000000000000000008152600401610ec990613333565b60405180910390fd5b6001600082815260200190815260200160002060070160009054906101000a900473ffffffffffffffffffffffffffffffffffffffff1673ffffffffffffffffffffffffffffffffffffffff163373ffffffffffffffffffffffffffffffffffffffff161415610f77576040517f08c379a0000000000000000000000000000000000000000000000000000000008152600401610f6e906133c5565b60405180910390fd5b336001600083815260200190815260200160002060080160006101000a81548173ffffffffffffffffffffffffffffffffffffffff021916908373ffffffffffffffffffffffffffffffffffffffff1602179055506001600082815260200190815260200160002060070160009054906101000a900473ffffffffffffffffffffffffffffffffffffffff1673ffffffffffffffffffffffffffffffffffffffff163373ffffffffffffffffffffffffffffffffffffffff167fad86e5395107a44c23ae10207c8807efe6cd1bfc2980d8c2bcab8f3a24daccd18360405161105f9190612ce4565b60405180910390a350565b606060036000838152602001908152602001600020805480602002602001604051908101604052809291908181526020016000905b8282101561113157838290600052602060002090600202016040518060400160405290816000820160009054906101000a900473ffffffffffffffffffffffffffffffffffffffff1673ffffffffffffffffffffffffffffffffffffffff1673ffffffffffffffffffffffffffffffffffffffff1681526020016001820154815250508152602001906001019061109f565b505050509050919050565b6060600560009054906101000a900473ffffffffffffffffffffffffffffffffffffffff1673ffffffffffffffffffffffffffffffffffffffff163373ffffffffffffffffffffffffffffffffffffffff16146111ce576040517f08c379a00000000000000000000000000000000000000000000000000000000081526004016111c590613457565b60405180910390fd5b6000805467ffffffffffffffff8111156111eb576111ea6124f7565b5b60405190808252806020026020018201604052801561122457816020015b61121161242a565b8152602001906001900390816112095790505b5090506000600190505b600054811161164857600160008281526020019081526020016000206040518061014001604052908160008201548152602001600182018054611270906134a6565b80601f016020809104026020016040519081016040528092919081815260200182805461129c906134a6565b80156112e95780601f106112be576101008083540402835291602001916112e9565b820191906000526020600020905b8154815290600101906020018083116112cc57829003601f168201915b50505050508152602001600282018054611302906134a6565b80601f016020809104026020016040519081016040528092919081815260200182805461132e906134a6565b801561137b5780601f106113505761010080835404028352916020019161137b565b820191906000526020600020905b81548152906001019060200180831161135e57829003601f168201915b50505050508152602001600382018054611394906134a6565b80601f01602080910402602001604051908101604052809291908181526020018280546113c0906134a6565b801561140d5780601f106113e25761010080835404028352916020019161140d565b820191906000526020600020905b8154815290600101906020018083116113f057829003601f168201915b50505050508152602001600482018054611426906134a6565b80601f0160208091040260200160405190810160405280929190818152602001828054611452906134a6565b801561149f5780601f106114745761010080835404028352916020019161149f565b820191906000526020600020905b81548152906001019060200180831161148257829003601f168201915b505050505081526020016005820180546114b8906134a6565b80601f01602080910402602001604051908101604052809291908181526020018280546114e4906134a6565b80156115315780601f1061150657610100808354040283529160200191611531565b820191906000526020600020905b81548152906001019060200180831161151457829003601f168201915b50505050508152602001600682015481526020016007820160009054906101000a900473ffffffffffffffffffffffffffffffffffffffff1673ffffffffffffffffffffffffffffffffffffffff1673ffffffffffffffffffffffffffffffffffffffff1681526020016007820160149054906101000a900460ff161515151581526020016008820160009054906101000a900473ffffffffffffffffffffffffffffffffffffffff1673ffffffffffffffffffffffffffffffffffffffff1673ffffffffffffffffffffffffffffffffffffffff16815250508260018361161991906134d8565b8151811061162a576116296130ff565b5b602002602001018190525080806116409061306a565b91505061122e565b508091505090565b803373ffffffffffffffffffffffffffffffffffffffff166001600083815260200190815260200160002060070160009054906101000a900473ffffffffffffffffffffffffffffffffffffffff1673ffffffffffffffffffffffffffffffffffffffff16146116f5576040517f08c379a00000000000000000000000000000000000000000000000000000000081526004016116ec906131a0565b60405180910390fd5b600073ffffffffffffffffffffffffffffffffffffffff166001600084815260200190815260200160002060080160009054906101000a900473ffffffffffffffffffffffffffffffffffffffff1673ffffffffffffffffffffffffffffffffffffffff16141561179b576040517f08c379a00000000000000000000000000000000000000000000000000000000081526004016117929061320c565b60405180910390fd5b60006001600084815260200190815260200160002060080160009054906101000a900473ffffffffffffffffffffffffffffffffffffffff16905060006001600085815260200190815260200160002060070160009054906101000a900473ffffffffffffffffffffffffffffffffffffffff1690506000600260008373ffffffffffffffffffffffffffffffffffffffff1673ffffffffffffffffffffffffffffffffffffffff168152602001908152602001600020905060005b81805490508110156119165785828281548110611877576118766130ff565b5b9060005260206000200154141561190357816001838054905061189a91906134d8565b815481106118ab576118aa6130ff565b5b90600052602060002001548282815481106118c9576118c86130ff565b5b9060005260206000200181905550818054806118e8576118e761350c565b5b60019003818190600052602060002001600090559055611916565b808061190e9061306a565b915050611857565b50826001600087815260200190815260200160002060070160006101000a81548173ffffffffffffffffffffffffffffffffffffffff021916908373ffffffffffffffffffffffffffffffffffffffff16021790555060006001600087815260200190815260200160002060070160146101000a81548160ff02191690831515021790555060006001600087815260200190815260200160002060080160006101000a81548173ffffffffffffffffffffffffffffffffffffffff021916908373ffffffffffffffffffffffffffffffffffffffff160217905550600260008473ffffffffffffffffffffffffffffffffffffffff1673ffffffffffffffffffffffffffffffffffffffff1681526020019081526020016000208590806001815401808255809150506001900390600052602060002001600090919091909150556003600086815260200190815260200160002060405180604001604052808573ffffffffffffffffffffffffffffffffffffffff16815260200142815250908060018154018082558091505060019003906000526020600020906002020160009091909190915060008201518160000160006101000a81548173ffffffffffffffffffffffffffffffffffffffff021916908373ffffffffffffffffffffffffffffffffffffffff1602179055506020820151816001015550508273ffffffffffffffffffffffffffffffffffffffff168273ffffffffffffffffffffffffffffffffffffffff167f46f832fce5ed185c63ebb7f10c809c6ecbe7c0e49554433903d83d6dceef88f787604051611b6e9190612ce4565b60405180910390a35050505050565b60026020528160005260406000208181548110611b9957600080fd5b90600052602060002001600091509150505481565b60005481565b6001602052806000526040600020600091509050806000015490806001018054611bdd906134a6565b80601f0160208091040260200160405190810160405280929190818152602001828054611c09906134a6565b8015611c565780601f10611c2b57610100808354040283529160200191611c56565b820191906000526020600020905b815481529060010190602001808311611c3957829003601f168201915b505050505090806002018054611c6b906134a6565b80601f0160208091040260200160405190810160405280929190818152602001828054611c97906134a6565b8015611ce45780601f10611cb957610100808354040283529160200191611ce4565b820191906000526020600020905b815481529060010190602001808311611cc757829003601f168201915b505050505090806003018054611cf9906134a6565b80601f0160208091040260200160405190810160405280929190818152602001828054611d25906134a6565b8015611d725780601f10611d4757610100808354040283529160200191611d72565b820191906000526020600020905b815481529060010190602001808311611d5557829003601f168201915b505050505090806004018054611d87906134a6565b80601f0160208091040260200160405190810160405280929190818152602001828054611db3906134a6565b8015611e005780601f10611dd557610100808354040283529160200191611e00565b820191906000526020600020905b815481529060010190602001808311611de357829003601f168201915b505050505090806005018054611e15906134a6565b80601f0160208091040260200160405190810160405280929190818152602001828054611e41906134a6565b8015611e8e5780601f10611e6357610100808354040283529160200191611e8e565b820191906000526020600020905b815481529060010190602001808311611e7157829003601f168201915b5050505050908060060154908060070160009054906101000a900473ffffffffffffffffffffffffffffffffffffffff16908060070160149054906101000a900460ff16908060080160009054906101000a900473ffffffffffffffffffffffffffffffffffffffff1690508a565b60036020528160005260406000208181548110611f1957600080fd5b9060005260206000209060020201600091509150508060000160009054906101000a900473ffffffffffffffffffffffffffffffffffffffff16908060010154905082565b600560009054906101000a900473ffffffffffffffffffffffffffffffffffffffff1681565b60608060608060606000806000600160008a81526020019081526020016000206040518061014001604052908160008201548152602001600182018054611fca906134a6565b80601f0160208091040260200160405190810160405280929190818152602001828054611ff6906134a6565b80156120435780601f1061201857610100808354040283529160200191612043565b820191906000526020600020905b81548152906001019060200180831161202657829003601f168201915b5050505050815260200160028201805461205c906134a6565b80601f0160208091040260200160405190810160405280929190818152602001828054612088906134a6565b80156120d55780601f106120aa576101008083540402835291602001916120d5565b820191906000526020600020905b8154815290600101906020018083116120b857829003601f168201915b505050505081526020016003820180546120ee906134a6565b80601f016020809104026020016040519081016040528092919081815260200182805461211a906134a6565b80156121675780601f1061213c57610100808354040283529160200191612167565b820191906000526020600020905b81548152906001019060200180831161214a57829003601f168201915b50505050508152602001600482018054612180906134a6565b80601f01602080910402602001604051908101604052809291908181526020018280546121ac906134a6565b80156121f95780601f106121ce576101008083540402835291602001916121f9565b820191906000526020600020905b8154815290600101906020018083116121dc57829003601f168201915b50505050508152602001600582018054612212906134a6565b80601f016020809104026020016040519081016040528092919081815260200182805461223e906134a6565b801561228b5780601f106122605761010080835404028352916020019161228b565b820191906000526020600020905b81548152906001019060200180831161226e57829003601f168201915b50505050508152602001600682015481526020016007820160009054906101000a900473ffffffffffffffffffffffffffffffffffffffff1673ffffffffffffffffffffffffffffffffffffffff1673ffffffffffffffffffffffffffffffffffffffff1681526020016007820160149054906101000a900460ff161515151581526020016008820160009054906101000a900473ffffffffffffffffffffffffffffffffffffffff1673ffffffffffffffffffffffffffffffffffffffff1673ffffffffffffffffffffffffffffffffffffffff1681525050905080602001518160400151826060015183608001518460a001518560c001518660e00151975097509750975097509750975050919395979092949650565b8280546123b0906134a6565b90600052602060002090601f0160209004810192826123d25760008555612419565b82601f106123eb57805160ff1916838001178555612419565b82800160010185558215612419579182015b828111156124185782518255916020019190600101906123fd565b5b50905061242691906124ab565b5090565b60405180610140016040528060008152602001606081526020016060815260200160608152602001606081526020016060815260200160008152602001600073ffffffffffffffffffffffffffffffffffffffff168152602001600015158152602001600073ffffffffffffffffffffffffffffffffffffffff1681525090565b5b808211156124c45760008160009055506001016124ac565b5090565b6000604051905090565b600080fd5b600080fd5b600080fd5b600080fd5b6000601f19601f8301169050919050565b7f4e487b7100000000000000000000000000000000000000000000000000000000600052604160045260246000fd5b61252f826124e6565b810181811067ffffffffffffffff8211171561254e5761254d6124f7565b5b80604052505050565b60006125616124c8565b905061256d8282612526565b919050565b600067ffffffffffffffff82111561258d5761258c6124f7565b5b612596826124e6565b9050602081019050919050565b82818337600083830152505050565b60006125c56125c084612572565b612557565b9050828152602081018484840111156125e1576125e06124e1565b5b6125ec8482856125a3565b509392505050565b600082601f830112612609576126086124dc565b5b81356126198482602086016125b2565b91505092915050565b6000819050919050565b61263581612622565b811461264057600080fd5b50565b6000813590506126528161262c565b92915050565b60008060008060008060c08789031215612675576126746124d2565b5b600087013567ffffffffffffffff811115612693576126926124d7565b5b61269f89828a016125f4565b965050602087013567ffffffffffffffff8111156126c0576126bf6124d7565b5b6126cc89828a016125f4565b955050604087013567ffffffffffffffff8111156126ed576126ec6124d7565b5b6126f989828a016125f4565b945050606087013567ffffffffffffffff81111561271a576127196124d7565b5b61272689828a016125f4565b935050608087013567ffffffffffffffff811115612747576127466124d7565b5b61275389828a016125f4565b92505060a061276489828a01612643565b9150509295509295509295565b600073ffffffffffffffffffffffffffffffffffffffff82169050919050565b600061279c82612771565b9050919050565b6127ac81612791565b81146127b757600080fd5b50565b6000813590506127c9816127a3565b92915050565b6000602082840312156127e5576127e46124d2565b5b60006127f3848285016127ba565b91505092915050565b600081519050919050565b600082825260208201905092915050565b6000819050602082019050919050565b61283181612622565b82525050565b60006128438383612828565b60208301905092915050565b6000602082019050919050565b6000612867826127fc565b6128718185612807565b935061287c83612818565b8060005b838110156128ad5781516128948882612837565b975061289f8361284f565b925050600181019050612880565b5085935050505092915050565b600060208201905081810360008301526128d4818461285c565b905092915050565b6000602082840312156128f2576128f16124d2565b5b600061290084828501612643565b91505092915050565b600081519050919050565b600082825260208201905092915050565b6000819050602082019050919050565b61293e81612791565b82525050565b60408201600082015161295a6000850182612935565b50602082015161296d6020850182612828565b50505050565b600061297f8383612944565b60408301905092915050565b6000602082019050919050565b60006129a382612909565b6129ad8185612914565b93506129b883612925565b8060005b838110156129e95781516129d08882612973565b97506129db8361298b565b9250506001810190506129bc565b5085935050505092915050565b60006020820190508181036000830152612a108184612998565b905092915050565b600081519050919050565b600082825260208201905092915050565b6000819050602082019050919050565b600081519050919050565b600082825260208201905092915050565b60005b83811015612a7e578082015181840152602081019050612a63565b83811115612a8d576000848401525b50505050565b6000612a9e82612a44565b612aa88185612a4f565b9350612ab8818560208601612a60565b612ac1816124e6565b840191505092915050565b60008115159050919050565b612ae181612acc565b82525050565b600061014083016000830151612b006000860182612828565b5060208301518482036020860152612b188282612a93565b91505060408301518482036040860152612b328282612a93565b91505060608301518482036060860152612b4c8282612a93565b91505060808301518482036080860152612b668282612a93565b91505060a083015184820360a0860152612b808282612a93565b91505060c0830151612b9560c0860182612828565b5060e0830151612ba860e0860182612935565b50610100830151612bbd610100860182612ad8565b50610120830151612bd2610120860182612935565b508091505092915050565b6000612be98383612ae7565b905092915050565b6000602082019050919050565b6000612c0982612a18565b612c138185612a23565b935083602082028501612c2585612a34565b8060005b85811015612c615784840389528151612c428582612bdd565b9450612c4d83612bf1565b925060208a01995050600181019050612c29565b50829750879550505050505092915050565b60006020820190508181036000830152612c8d8184612bfe565b905092915050565b60008060408385031215612cac57612cab6124d2565b5b6000612cba858286016127ba565b9250506020612ccb85828601612643565b9150509250929050565b612cde81612622565b82525050565b6000602082019050612cf96000830184612cd5565b92915050565b600082825260208201905092915050565b6000612d1b82612a44565b612d258185612cff565b9350612d35818560208601612a60565b612d3e816124e6565b840191505092915050565b612d5281612791565b82525050565b612d6181612acc565b82525050565b600061014082019050612d7d600083018d612cd5565b8181036020830152612d8f818c612d10565b90508181036040830152612da3818b612d10565b90508181036060830152612db7818a612d10565b90508181036080830152612dcb8189612d10565b905081810360a0830152612ddf8188612d10565b9050612dee60c0830187612cd5565b612dfb60e0830186612d49565b612e09610100830185612d58565b612e17610120830184612d49565b9b9a5050505050505050505050565b60008060408385031215612e3d57612e3c6124d2565b5b6000612e4b85828601612643565b9250506020612e5c85828601612643565b9150509250929050565b6000604082019050612e7b6000830185612d49565b612e886020830184612cd5565b9392505050565b6000602082019050612ea46000830184612d49565b92915050565b600060e0820190508181036000830152612ec4818a612d10565b90508181036020830152612ed88189612d10565b90508181036040830152612eec8188612d10565b90508181036060830152612f008187612d10565b90508181036080830152612f148186612d10565b9050612f2360a0830185612cd5565b612f3060c0830184612d49565b98975050505050505050565b600081905092915050565b6000612f5282612a44565b612f5c8185612f3c565b9350612f6c818560208601612a60565b80840191505092915050565b6000612f848286612f47565b9150612f908285612f47565b9150612f9c8284612f47565b9150819050949350505050565b7f4572726f723a204c616e6420776974682074686573652064657461696c73206960008201527f7320616c72656164792072656769737465726564000000000000000000000000602082015250565b6000613005603483612cff565b915061301082612fa9565b604082019050919050565b6000602082019050818103600083015261303481612ff8565b9050919050565b7f4e487b7100000000000000000000000000000000000000000000000000000000600052601160045260246000fd5b600061307582612622565b91507fffffffffffffffffffffffffffffffffffffffffffffffffffffffffffffffff8214156130a8576130a761303b565b5b600182019050919050565b60006080820190506130c86000830187612cd5565b6130d56020830186612d49565b81810360408301526130e78185612d10565b90506130f66060830184612cd5565b95945050505050565b7f4e487b7100000000000000000000000000000000000000000000000000000000600052603260045260246000fd5b7f596f7520617265206e6f7420746865206f776e6572206f662074686973206c6160008201527f6e64000000000000000000000000000000000000000000000000000000000000602082015250565b600061318a602283612cff565b91506131958261312e565b604082019050919050565b600060208201905081810360008301526131b98161317d565b9050919050565b7f4e6f207472616e7366657220726571756573742070656e64696e670000000000600082015250565b60006131f6601b83612cff565b9150613201826131c0565b602082019050919050565b60006020820190508181036000830152613225816131e9565b9050919050565b60006040820190506132416000830185612cd5565b61324e6020830184612d49565b9392505050565b7f4c616e64206973206e6f7420666f722073616c65000000000000000000000000600082015250565b600061328b601483612cff565b915061329682613255565b602082019050919050565b600060208201905081810360008301526132ba8161327e565b9050919050565b7f5472616e7366657220616c72656164792072657175657374656420627920736f60008201527f6d656f6e65000000000000000000000000000000000000000000000000000000602082015250565b600061331d602583612cff565b9150613328826132c1565b604082019050919050565b6000602082019050818103600083015261334c81613310565b9050919050565b7f4f776e65722063616e6e6f742072657175657374207472616e7366657220746f60008201527f207468656d73656c766573000000000000000000000000000000000000000000602082015250565b60006133af602b83612cff565b91506133ba82613353565b604082019050919050565b600060208201905081810360008301526133de816133a2565b9050919050565b7f4f6e6c792061646d696e2063616e20706572666f726d2074686973206163746960008201527f6f6e000000000000000000000000000000000000000000000000000000000000602082015250565b6000613441602283612cff565b915061344c826133e5565b604082019050919050565b6000602082019050818103600083015261347081613434565b9050919050565b7f4e487b7100000000000000000000000000000000000000000000000000000000600052602260045260246000fd5b600060028204905060018216806134be57607f821691505b602082108114156134d2576134d1613477565b5b50919050565b60006134e382612622565b91506134ee83612622565b9250828210156135015761350061303b565b5b828203905092915050565b7f4e487b7100000000000000000000000000000000000000000000000000000000600052603160045260246000fdfea2646970667358221220c28114442a193ea0122b1d1ac3a0d074b489bdcccd55f9beb47e97282e5b062264736f6c63430008090033",
  "immutableReferences": {},
  "source": "// SPDX-License-Identifier: MIT\npragma solidity ^0.8.9;\n\ncontract LandRegistry {\n    struct Land {\n        uint256 id;\n        string plotNumber;\n        string area;\n        string district;\n        string city;\n        string state;\n        uint256 areaSqYd;\n        address owner;\n        bool isForSale;\n        address transferRequest;\n    }\n\n    struct OwnershipHistory {\n        address owner;\n        uint256 timestamp;\n    }\n\n    uint256 public landCount;\n    mapping(uint256 => Land) public lands;\n    mapping(address => uint256[]) public ownerLands;\n    mapping(uint256 => OwnershipHistory[]) public landOwnershipHistory;\n    mapping(bytes32 => bool) private landExists;\n\n    address public admin;\n\n    event LandRegistered(uint256 id, address owner, string plotNumber, uint256 areaSqYd);\n    event LandForSale(uint256 id, address owner);\n    event TransferRequested(uint256 id, address indexed requester, address indexed owner);\n    event TransferApproved(uint256 id, address indexed from, address indexed to);\n    event TransferDenied(uint256 id, address indexed requester, address indexed owner);\n\n    modifier onlyOwner(uint256 _landId) {\n        require(lands[_landId].owner == msg.sender, \"You are not the owner of this land\");\n        _;\n    }\n\n    modifier onlyAdmin() {\n        require(msg.sender == admin, \"Only admin can perform this action\");\n        _;\n    }\n\n    constructor() {\n        admin = msg.sender;\n    }\n\n    // *** KEY CHANGE: Removed 'onlyAdmin' so any user can register land ***\n    function registerLand(\n        string memory _plotNumber,\n        string memory _area,\n        string memory _district,\n        string memory _city,\n        string memory _state,\n        uint256 _areaSqYd\n    ) public {\n        bytes32 landHash = keccak256(abi.encodePacked(_plotNumber, _district, _state));\n        require(!landExists[landHash], \"Error: Land with these details is already registered\");\n\n        landCount++;\n        lands[landCount] = Land(\n            landCount,\n            _plotNumber,\n            _area,\n            _district,\n            _city,\n            _state,\n            _areaSqYd,\n            msg.sender, // The person calling the function is the owner\n            false,\n            address(0)\n        );\n\n        landExists[landHash] = true;\n        ownerLands[msg.sender].push(landCount);\n        landOwnershipHistory[landCount].push(OwnershipHistory(msg.sender, block.timestamp));\n\n        emit LandRegistered(landCount, msg.sender, _plotNumber, _areaSqYd);\n    }\n    \n    // All other functions remain the same as our previous version...\n\n    function putLandForSale(uint256 _landId) public onlyOwner(_landId) {\n        lands[_landId].isForSale = true;\n        emit LandForSale(_landId, msg.sender);\n    }\n\n    function requestTransfer(uint256 _landId) public {\n        require(lands[_landId].isForSale, \"Land is not for sale\");\n        require(lands[_landId].transferRequest == address(0), \"Transfer already requested by someone\");\n        require(msg.sender != lands[_landId].owner, \"Owner cannot request transfer to themselves\");\n\n        lands[_landId].transferRequest = msg.sender;\n        emit TransferRequested(_landId, msg.sender, lands[_landId].owner);\n    }\n\n    function approveTransfer(uint256 _landId) public onlyOwner(_landId) {\n        require(lands[_landId].transferRequest != address(0), \"No transfer request pending\");\n        address newOwner = lands[_landId].transferRequest;\n        address previousOwner = lands[_landId].owner;\n        uint256[] storage ownerLandList = ownerLands[previousOwner];\n        for (uint256 i = 0; i < ownerLandList.length; i++) {\n            if (ownerLandList[i] == _landId) {\n                ownerLandList[i] = ownerLandList[ownerLandList.length - 1];\n                ownerLandList.pop();\n                break;\n            }\n        }\n        lands[_landId].owner = newOwner;\n        lands[_landId].isForSale = false;\n        lands[_landId].transferRequest = address(0);\n        ownerLands[newOwner].push(_landId);\n        landOwnershipHistory[_landId].push(OwnershipHistory(newOwner, block.timestamp));\n        emit TransferApproved(_landId, previousOwner, newOwner);\n    }\n\n    function denyTransfer(uint256 _landId) public onlyOwner(_landId) {\n        require(lands[_landId].transferRequest != address(0), \"No transfer request pending\");\n        address requester = lands[_landId].transferRequest;\n        lands[_landId].transferRequest = address(0);\n        emit TransferDenied(_landId, requester, msg.sender);\n    }\n\n    function verifyLand(uint256 _landId) public view returns (string memory, string memory, string memory, string memory, string memory, uint256, address) {\n        Land memory land = lands[_landId];\n        return (land.plotNumber, land.area, land.district, land.city, land.state, land.areaSqYd, land.owner);\n    }\n\n    function getLandsByOwner(address _owner) public view returns (uint256[] memory) {\n        return ownerLands[_owner];\n    }\n\n    function getPendingTransferRequests(address _owner) public view returns (uint256[] memory) {\n        uint256[] memory ownedLands = ownerLands[_owner];\n        uint256 pendingCount = 0;\n        for (uint256 i = 0; i < ownedLands.length; i++) {\n            if (lands[ownedLands[i]].transferRequest != address(0)) {\n                pendingCount++;\n            }\n        }\n        uint256[] memory pendingRequests = new uint256[](pendingCount);\n        uint256 index = 0;\n        for (uint256 i = 0; i < ownedLands.length; i++) {\n            uint256 landId = ownedLands[i];\n            if (lands[landId].transferRequest != address(0)) {\n                pendingRequests[index] = landId;\n                index++;\n            }\n        }\n        return pendingRequests;\n    }\n\n    function getAllLands() public view onlyAdmin returns (Land[] memory) {\n        Land[] memory allLands = new Land[](landCount);\n        for (uint256 i = 1; i <= landCount; i++) {\n            allLands[i - 1] = lands[i];\n        }\n        return allLands;\n    }\n\n    function getPastOwnershipDetails(uint256 _landId) public view returns (OwnershipHistory[] memory) {\n        return landOwnershipHistory[_landId];\n    }\n}",
  "sourcePath": "/Users/sachinmac/FinalYearProject-LandRegistry/contracts/LandRegistry.sol",
  "compiler": {
    "name": "solc",
    "version": "0.8.9+commit.e5eed63a.Emscripten.clang"
  },
  "schemaVersion": "3.4.16",
  "updatedAt": "2025-09-10T07:28:33.374Z",
  "networkType": "ethereum",
  "devdoc": {
    "kind": "dev",
    "methods": {},
    "version": 1
  },
  "userdoc": {
    "kind": "user",
    "methods": {},
    "version": 1
  }
}